:020000040800F2
:10000000A00600200501000831120008DF110008D9
:100010002D120008F50C00085F1F0008000000000A
:100020000000000000000000000000004D17000864
:10003000F90C00080000000071150008AD18000858
:100040001F0100081F0100081F0100081F01000810
:100050001F0100081F010008FD0C00081F01000817
:10006000790D0008390E00081F0100081F01000863
:100070001F0100081F0100081F0100081F010008E0
:100080001F0100081F0100081F0100081F010008D0
:100090001F0100081F0100081F0100081F010008C0
:1000A0001F0100081F0100081F0100081F010008B0
:1000B0001F010008111900081F0100081F01000896
:1000C0001F0100081F0100081F0100081F01000890
:1000D0001F010008FD1B0008851C00081F01000807
:1000E0001F0100081F0100081F010008DFF810D0E1
:1000F00000F038FC004800478D310008AFF3008065
:10010000A00600200648804706480047FEE7FEE7B5
:10011000FEE7FEE7FEE7FEE7FEE7FEE7FEE7FEE7B7
:10012000B1180008ED000008D2B201E000F8012B80
:10013000491EFBD270470022F6E710B513460A4667
:1001400004461946FFF7F0FF204610BD30B50546BE
:100150002A460B4612F8010B13F8014B08B1A042D6
:10016000F8D01CB1002802D06D1CF1E7284630BD44
:10017000421C10F8011B0029FBD1801A70470000B7
:100180000FB400B58DB010A909900B9000914FF0FD
:10019000FF300A9000200C90054806900548079013
:1001A0006A4609A80F9900F0AFFA0DB05DF814FB8C
:1001B00025070008430700082DE9FF5F1D464FF0A3
:1001C000FF3BD5E9014691465F464FF00008A9691B
:1001D0007F1C01988847296A824688470028F6D103
:1001E000BAF1FF3F0CD024F4C064002E19DD600684
:1001F00014D5BAF12B0F09D0BAF12D0F0ED103E0AF
:10020000584604B0BDE8F09F44F48064A9697F1C9F
:1002100001988847761E8246002E02DDBAF1300F23
:1002200003D0B9F1000F26D032E0A969761E44F45C
:1002300000747F1C019888478246002E05DDBAF1C4
:10024000780F06D0BAF1580F03D0B9F1000F10D0D3
:100250001EE0B9F1000F02D0B9F1100F18D1A96951
:10026000761E24F400747F1C019888478246102073
:1002700002E0082000E00A20814609E008FB0908A6
:10028000A969761E44F400747F1C01988847824651
:10029000002E05DD4946504600F022FA0028EDDA2E
:1002A000E96901988847A00502D46FF00100A8E72A
:1002B000E00725D1600613D5600502D5C8F100001E
:1002C00000E0404629680A1D2A600968220501D518
:1002D000087015E0220701D5088011E008600FE0E2
:1002E0002868011D29600068210502D580F800807A
:1002F00006E0210702D5A0F8008001E0C0F80080E8
:1003000038467EE72DE9FF5FD2E901A74FF00008EC
:10031000916999461446DDF838B0464601988847F9
:10032000054659EA0B0005D009E0A169761C019841
:1003300088470546216A284688470028F5D1681C69
:1003400003D05FEACA7005D015E04FF0FF3004B06B
:10035000BDE8F09F2068011D2160D0F800800AE010
:100360005FEACA7001D108F8015BA169761C7F1EA3
:10037000019888470546002F1ADD681C18D0B9F18E
:10038000000F0DD0E81705EBD060421120F01F00E0
:1003900059F822102A1A012090400142E0D107E0CA
:1003A000BBF1000FDCD1216A284688470028D7D04E
:1003B000E16901988847BBF1000F07D1002E05DDE8
:1003C0005FEACA7002D1002188F80010A068B84224
:1003D00003DDBBF1000F03D017B16FF00100B6E7EA
:1003E0003046B4E72DE9FE4F804681EA0300C00F96
:1003F0000C46009021F0004123F00045B8EB0200CC
:10040000A94105D24046214690461C460B4602466D
:1004100023F00040104347D0270DC7F30A00C3F371
:100420000A510290401A019040286BDAC3F313007E
:1004300040F4801B0098924620B10023D2EB030ABF
:1004400063EB0B0B01985946C0F14002504600F097
:1004500026F906460D4650465946019A00F02EF9F7
:1004600010EB08006141002487EA115284EAE77327
:100470001A4340D0009A62B3019A012A4FEA075208
:1004800015DC001B61EB02014FF0004202EA07524B
:10049000CDE90042001C41F5801132462B4600F0A8
:1004A00070F903B0BDE8F08F40462146F9E7001B24
:1004B00061EB0201001C41F5801300185B4120181C
:1004C000A2F5001747EB030140EAD570B6196D415C
:1004D00011E06D084FEA360645EAC0754FEA07524B
:1004E000001B61EB0201001C41F5801149084FEA35
:1004F00030000019514132462B4603B0BDE8F04FA1
:1005000000F030B90098012240000023D0EB020235
:1005100063EBE073009821464FEAE074B8EB00000B
:1005200061EB0401E9E783F000435BE781F0004100
:1005300058E72DE9F04D81EA030404F0004B21F067
:10054000004514464FF0000A23F0004150EA05022E
:1005500020D054EA01021DD0C5F30A570246C5F364
:100560001303C1F31300C1F30A5640F4801543F49A
:100570008013A7EB0608101BD64608F2FD3873EB74
:10058000050002D308F1010801E092185B41B8F1BF
:10059000000F03DA00200146BDE8F08D00204FF483
:1005A0008011064684460EE0171B73EB050705D342
:1005B000121B63EB050306434CEA010C49084FEAA2
:1005C000300092185B4150EA0107EDD152EA030076
:1005D00012D082EA040083EA0501084305D0101B0B
:1005E000AB4106D20122002306E000224FF0004377
:1005F00002E06FF0010253101AEB06004CEB0851B9
:1006000010EB0A0041EB0B01BDE8F04D00F0AAB879
:1006100030B50B46014600202022012409E021FAD2
:1006200002F59D4205D303FA02F5491B04FA02F5CF
:100630002844151EA2F10102F1DC30BD2DE9F05F66
:100640000546002092469B46884606468146402441
:100650001BE0284641464746224600F095F953469E
:100660005A46C01A914110D311461846224600F04E
:1006700016F82D1A67EB01084F462246012000218B
:1006800000F00DF817EB00094E41201EA4F1010403
:10069000DFDC484631462A464346BDE8F09F202A23
:1006A00004DB203A00FA02F1002070479140C2F1C9
:1006B000200320FA03F3194390407047202A06DBF9
:1006C000CB17203A41FA02F043EAE07306E041FA20
:1006D00002F3D040C2F1200291400843194670470E
:1006E0003A2800D2303820F02002412A01D3A2F16A
:1006F0003700884201D34FF0FF3070470268114441
:100700001378016018467047D1600449516104496B
:10071000116200211161114600F054B9FD06000874
:10072000B1090008426842B1016811F8013B23B1E8
:10073000521EC0E90012184670470121C160881E90
:10074000704742685AB1C368016843B983688B42F5
:1007500005D0491E521CC0E90012002070474FF01E
:10076000FF30704710B5141E73F1000408DA401C06
:1007700041F1000192185B411A4301D120F00100C0
:1007800010BD2DE9F04D92469B4611B1B1FA81F2B0
:1007900002E0B0FA80F220329046FFF780FF044674
:1007A0000F4640EA0A0041EA0B0153465A46084305
:1007B00013D0114653EA010019D0C8F14002504647
:1007C00000F0E2F805460E46504659464246FFF70D
:1007D00066FF084305D0012004E020463946BDE805
:1007E000F08D0020054346EAE0762C4337430A9813
:1007F0006305E40AA0EB08000022FD0A44EA47541E
:100800000A3002D500200146E9E7010510196941C7
:10081000DDE9084500196941BDE8F04DA2E72DE981
:10082000FE4F81EA030404F0004421F000410094EB
:100830004FF0000B23F0004350EA01045ED052EA6F
:1008400003045BD0C3F30A54C1F30A552C44A4F249
:10085000F3340194A0FB0254C1F3130141F480115D
:10086000C3F3130343F4801301FB024400FB034E64
:10087000840A970A44EA815447EA8357A4FB07682D
:1008800002958D0A05FB07854FEA932C04FB0C5457
:100890002705029D4FEA065847EA1637B5EB0805CB
:1008A0006EEB070C870E920E47EA811742EA83121D
:1008B000A7FB0201B6EB0B0164EB00042B0D43EA2E
:1008C0000C335E1844EB1C50DA465146E7FB02013C
:1008D000C5F313044FEA0B3343EA14534FEA0432CF
:1008E000019C43EA0603A4F10C040294009CCDE9A8
:1008F00000B4FFF746FF03B0BDE8F08F00200146CB
:10090000F9E7C1F30A52C1F3130140F2FF3341F496
:1009100080119A4202DA00200146704740F23343C8
:100920009A42A2F2334202DC524200F02DB8FFF7A5
:10093000B6BE000030B5041E71F1000404DB4FF0B8
:100940000044404264EB0101141E73F1000405DB16
:100950001C464FF00043524263EB0403994208BF28
:10096000904230BD064C074D06E0E06840F00103C0
:1009700094E8070098471034AC42F6D3FFF7BAFB6F
:10098000444D0008644D0008202A04DB203A21FA77
:1009900002F00021704721FA02F3D040C2F1200298
:1009A000914008431946704700487047304C000892
:1009B00010B50446FFF7F8FF0068005D00F0010085
:1009C00010BD00002DE9F34F8BB04FF0000801F18E
:1009D0000C000C464FF0010B46460DF1080A019041
:1009E0006269012101989047051E2DD0252D2CD03C
:1009F000216A8847C0B16269012101989047216A44
:100A000088470028F7D1411E62690198904700E0AD
:100A1000761CA1690B988847216A88470028F7D17E
:100A2000E1690B988847DBE7A1690B98884707467F
:100A3000A84201D1761CD3E7E1690B9888477F1C57
:100A400002D1B8F1000F6FD047E1002762693D463F
:100A50003946019890472A2804D1626901210198FA
:100A600090470125DFF8889262690121019890473B
:100A7000A0F130010A290AD24F45E5DC07EB8701D6
:100A800000EB4107303FDFD445F01005ECE7E90605
:100A900001D46FF000476C280AD04C2814D0682885
:100AA00015D06A280DD074281CD07A281AD01DE0E1
:100AB00062690121019890476C2802D045F0040535
:100AC00014E045F002050DE045F020050AE06269FA
:100AD000012101989047682802D045F0080505E0FB
:100AE00045F400656269012101989047C4E9015706
:100AF00065283DD019DC58287AD00CDC452837D041
:100B000004DC252826D0412831D131E046282FD0D9
:100B100047282CD12CE05B2877D0612828D0632887
:100B20007CD0642823D15AE0D1E06F2848D008DC7B
:100B300066281DD067281BD0692821D06E2816D1C1
:100B400027E0702845D0732868D0752847D07828CA
:100B50000DD14DE0A1690B988847054625283FF443
:100B600069AFE1690B9888476D1C3FF46AAFB4E048
:100B700023466A466FF001000B99AFF300809FE0B7
:100B800045F040006060A80723464FF0000236D4CD
:100B90003EE0E8077FF447AF2068011D2160006850
:100BA000290501D506701BE7290701D5068017E73F
:100BB000A90703D5F117C0E9006111E706600FE747
:100BC00045F040006060A80723464FF0080216D4A5
:100BD0001EE040F60E0125EA0100606016E045F0D7
:100BE00040006060A80723464FF00A0207D40FE0D8
:100BF00045F040006060A80708D5234610226FF03A
:100C000001000B99AFF300805AE007E02346102261
:100C10006FF001000B99FFF7CFFA51E04FF0000998
:100C20004F464B46632802D05B2807D041E020792D
:100C3000C00601D40120A06001273AE062690121C9
:100C4000019890475E2805D14FF001096269494635
:100C500001989047216939B900210A46534643F863
:100C60002120491C0829FADBB0B3216969B9C117F1
:100C700000EBD16253110AEB830122F01F02821AAA
:100C800001200B68904003430B60626901210198C9
:100C900090475D28E8D1B9F1000F09D000205146F6
:100CA00051F82020D24341F82020401C0828F7DBCF
:100CB00002AB224600976FF001000B99FFF722FB71
:100CC00000280CDA401C08D1BBF1000F05D04FF012
:100CD000FF300DB0BDE8F08FFFE74046F9E7E907C8
:100CE00001D108F1010806444FF0000B78E600003E
:100CF000CCCCCC0C00BFFEE77047000010B5012043
:100D000000F000F980B10A2002F008F9012107483B
:100D100000F04AFA28B906A001F024F90EA001F06B
:100D200021F9012000F0E8F810BD000000080140A2
:100D30005B546F756368204B65795D20E4B8ADE660
:100D400096ADEFBC9A41E994AEE8A2ABE68C89E49B
:100D5000B88B0D0A000000005B53797374656D5DFC
:100D600020E8A7A6E691B8E68C89E994AE41E68C26
:100D700089E4B88B0D0A000010B5042000F0C2F819
:100D8000002828D00A2002F0C9F80421124800F0F7
:100D90000BFA00281CD111A001F0E4F8012000F0AA
:100DA00073FC184801F0DEF817A20121084600F094
:100DB000ABFB18A20121022000F0A6FB17A2012123
:100DC000032000F0A1FB19A20121042000F09CFBEC
:100DD000042000F091F810BD000801405B546F75CD
:100DE0006368204B65795D20E4B8ADE696ADEFBC55
:100DF0009A43E994AEE8A2ABE68C89E4B88B0D0A7D
:100E000000000000344C0008202052656C617920FD
:100E10003200000020204F4E0000000020205761CB
:100E20007465722050756D70000000002020506FB6
:100E3000776572656400000010B5082000F062F864
:100E4000002828D00A2002F069F80821124800F092
:100E5000ABF900281CD111A001F084F8002000F0AB
:100E600013FC184801F07EF817A20121084600F093
:100E70004BFB18A20121022000F046FB17A2012122
:100E8000032000F041FB19A20121042000F03CFBEB
:100E9000082000F031F810BD000801405B546F7568
:100EA0006368204B65795D20E4B8ADE696ADEFBC94
:100EB0009A44E994AEE8A2ABE68C89E4B88B0D0ABB
:100EC00000000000784C0008202052656C617920F9
:100ED0003200000020204F464600000020205761CD
:100EE0007465722050756D700000000020205374EE
:100EF0006F70706564000000014908607047000071
:100F000014040140014600200022074B1B6803EA3D
:100F10000102054B14331B680B4013B10AB10120C9
:100F200000E0002070470000000401400021234938
:100F30008279002A3AD00A46126803689A430B461F
:100F40001A600A1D126803689A430B1D1A60027921
:100F500011440A6803681A430A60184A0832126882
:100F600003689A43154B08331A601A1D1268036808
:100F70009A43124B0C331A604279102A0ED11A1F71
:100F8000126803681A430D4B08331A601A1D126861
:100F900003681A43094B0C331A600DE00749427984
:100FA00011440A6803681A430A6005E00279114493
:100FB0000A6803689A430A60704700000004014011
:100FC00030B500228B071C0F0F2303FA04F20B4BE2
:100FD0008C1053F824309343084C8D1044F825307E
:100FE00023468C1053F824308C07240F00FA04F4A5
:100FF0002343024C8D1044F8253030BD08000140D9
:101000002DE9F0410246002500260020002300249F
:10101000002791F803C00CF00F0591F803C00CF005
:10102000100CBCF1000F03D091F802C04CEA05058A
:1010300091F800C0BCF1000F31D0146800202BE003
:101040004FF0010C0CFA00F3B1F800C00CEA0306F3
:101050009E4220D183004FF00F0C0CFA03F7BC43E3
:1010600005FA03FC4CEA040491F803C0BCF1280F14
:1010700006D14FF0010C0CFA00FCC2F814C00AE0D3
:1010800091F803C0BCF1480F05D14FF0010C0CFAE8
:1010900000FCC2F810C0401C0828D1D31460B1F87D
:1010A00000C0BCF1FF0F34DD546800202EE000F1D9
:1010B000080C4FF0010808FA0CF3B1F800C00CEA74
:1010C00003069E4221D183004FF00F0C0CFA03F768
:1010D000BC4305FA03FC4CEA040491F803C0BCF1DC
:1010E000280F05D100F1080C08FA0CF8C2F814809A
:1010F00091F803C0BCF1480F07D100F1080C4FF084
:10110000010808FA0CF8C2F81080401C0828CED359
:101110005460BDE8F0810000F0B50A4600230024C9
:101120000021002500F00046B6F1004F02D11D4E0F
:10113000F16901E01B4E7168C0F3034583B200F40E
:101140004016B6F5401F08D121F07061154E766843
:1011500026F07066134F7E6012E000F48016B6F53C
:10116000801F06D1032606FA05F4A14341F0706101
:1011700006E0460D360103FA06F6B14341F0706110
:1011800022B1460D360103FA06F6314300F000465F
:10119000B6F1004F02D1034EF16101E0014E7160E2
:1011A000F0BD0000000001400246002093680B40A3
:1011B0000BB1012000E00020704702460020D368F8
:1011C0000B400BB1012000E00020704741617047E7
:1011D000016170470AB1016100E04161704700BFE1
:1011E000FEE7000008B50121082000F0D3F94FF414
:1011F0008050ADF8000010208DF8030003208DF81A
:10120000020069460848FFF7FBFE4FF40050ADF8B6
:10121000000069460448FFF7F3FE4FF440510248CE
:10122000FFF7D6FF08BD0000000C014000BFFEE73D
:101230007047000070B5002100230F22C47804B36A
:10124000154C246804F4E064C4F5E064210AC1F19B
:101250000403CA40447804FA03F18478144021431B
:1012600009010E4C0678A155047804F01F050124ED
:10127000AC4005786D11AD0005F1E025C5F80041E1
:1012800009E0047804F01F050124AC40044D067801
:10129000761145F8264070BD0CED00E000E400E05A
:1012A00080E100E070B500240EE00021204600F04F
:1012B000E0F8002504E0002000F04AF9681CC5B2FF
:1012C000802DF8DB601CC4B2082CEEDB70BD000082
:1012D00008B50121082000F05DF914208DF8030005
:1012E00003208DF802004020ADF8000069460A484E
:1012F000FFF786FE8020ADF8000069460648FFF73C
:101300007FFE012240210448FFF764FF0122802173
:101310000148FFF75FFF08BD000C014070B50546AE
:10132000002413E08020204100EA050280210E48BD
:10133000FFF750FF012240210B48FFF74BFF00222F
:1013400040210948FFF746FF601CC4B2082CE9DBC6
:10135000012240210448FFF73DFF002240210248BE
:10136000FFF738FF70BD0000000C014010B50122EE
:1013700080210948FFF72EFF012240210648FFF790
:1013800029FF002280210448FFF724FF002240218A
:101390000148FFF71FFF10BD000C014010B50022EF
:1013A00080210748FFF716FF012240210448FFF77C
:1013B00011FF012280210248FFF70CFF10BD000041
:1013C000000C014070B5002406E0002500E06D1C13
:1013D000B5F57A7FFBD3641CB4F57A7FF5D3FFF7BC
:1013E00077FFAE2000F0A4F8D52000F0A1F880200F
:1013F00000F09EF8A82000F09BF83F2000F098F83D
:10140000D32000F095F8002000F092F8402000F082
:101410008FF8A12000F08CF8C82000F089F8DA20BD
:1014200000F086F8122000F083F8812000F080F8A8
:10143000CF2000F07DF8D92000F07AF8F12000F0FC
:1014400077F8DB2000F074F8302000F071F8A42069
:1014500000F06EF8A62000F06BF88D2000F068F820
:10146000142000F065F8AF2000F062F8FFF71AFFD3
:1014700070BD70B505460C4645F0B00000F058F858
:10148000102141EA141000F053F804F00F0000F0AE
:101490004FF870BD2DE9F04105460E461746721E05
:1014A000D206110E6A1E5206100EFFF7E2FF00244C
:1014B00009E0A7F12001134A02EB0111085D00F0D9
:1014C00047F8601CC4B2082CF3DB721ED206110E62
:1014D0006A1E012303EB4202D0B2FFF7CAFF0024C9
:1014E0000BE0A7F12001074A02EB011204F1080109
:1014F000505C00F02DF8601CC4B2082CF1DBBDE894
:10150000F0810000BC4500082DE9F04107460E4679
:101510001546002407E02A5D3019C1B23846FFF7AE
:10152000B9FF601CC4B2285D0028F4D1BDE8F08189
:1015300010B50446FFF71AFF7820FFF7EFFE0020F2
:10154000FFF7ECFE2046FFF7E9FEFFF727FF10BD8F
:1015500010B50446FFF70AFF7820FFF7DFFE4020B2
:10156000FFF7DCFE2046FFF7D9FEFFF717FF10BD9F
:101570007047000029B1064AD2690243044BDA6180
:1015800004E0034AD2698243014BDA6170470000EC
:101590000010024029B1064A92690243044B9A6145
:1015A00004E0034A92698243014B9A61704700004C
:1015B0000010024030B500210022002400232D4DF0
:1015C0006D6805F00C0121B1042905D0082923D14B
:1015D00005E0294D056022E0274D05601FE0254DFF
:1015E0006D6805F47012234D6D6805F48034022592
:1015F00005EB92421CB9214D554305600BE01D4D92
:101600006D6805F400351DB11C4D5543056002E0C1
:10161000194D5543056002E0174D056000BF00BF3E
:10162000144D6D6805F0F0010909154D6B5C0568F6
:10163000DD4045600F4D6D6805F4E061090A104D0D
:101640006B5C4568DD4085600A4D6D6805F460514E
:10165000C90A0B4D6B5C4568DD40C560054D6D6882
:1016600005F44041890B074D6B5CC568B5FBF3F58C
:10167000056130BD0010024000127A0000093D00F3
:10168000000000201000002070B5044621460AA08A
:1016900000F068FC22464FF400511048FFF79AFD15
:1016A0004FF400510D48FFF788FD054629460CA070
:1016B00000F058FC70BD00005B52656C61795D20E4
:1016C000E7BBA7E794B5E599A832E8AEBEE7BDAEA3
:1016D000E4B8BA3A2025640D0A0000000008014071
:1016E0005B52656C61795D20E7BBA7E794B5E5992E
:1016F000A832E5AE9EE99985E78AB6E680813A2070
:1017000025640D0A0000000008B501210520FFF73F
:1017100041FF4FF4C040ADF8000010208DF80300E9
:1017200003208DF8020069460648FFF769FC012195
:101730000548FFF7F1FC4FF4C0410248FFF746FDB2
:1017400008BD0000000801400004300070470000A0
:1017500070B501F0CBFA054601F0DEFA04467DB122
:10176000002C0DDD07A000F0FDFB002001E0411C76
:1017700088B2A042FBDB08A000F0F4FB01F0DAFA2B
:1017800070BD00005B52533438355D20526563658F
:10179000697665643A2000000D0A000010B500F07B
:1017A00001F810BD0CB5002001900090334800688E
:1017B00040F480303149086000BF3048006800F4D0
:1017C000003000900198401C0190009818B90198D1
:1017D000B0F5A06FF1D12948006800F4003010B1D5
:1017E0000120009001E0002000900098012843D1E2
:1017F0002348006840F0100021490860084600684E
:1018000020F0030008600846006840F0020008600D
:101810001A484068194948600846406848600846C8
:10182000406840F4806048600846406820F47C10BE
:1018300048600846406840F4E81048600846006880
:1018400040F08070086000BF0C48006800F0007035
:101850000028F9D00948406820F003000749486093
:101860000846406840F00200486000BF03484068F6
:1018700000F00C000828F9D10CBD00000010024057
:1018800000200240042808D14FF0E021096941F00E
:1018900004014FF0E022116107E04FF0E0210969F7
:1018A00021F004014FF0E022116170477047000001
:1018B00010B51348006840F001001149086008465F
:1018C0004068104908400E494860084600680E49C3
:1018D00008400B4908600846006820F48020086032
:1018E0000846406820F4FE0048604FF41F008860FE
:1018F000FFF754FF4FF000600449086010BD00007E
:10190000001002400000FFF8FFFFF6FE08ED00E0C7
:1019100010B501210B4800F028F888B101210948D1
:1019200000F014F80021074800F013F8064800887A
:1019300020F4004000F5004003490880FFF708FF4D
:1019400010BD00000004004028000020CA430282AD
:10195000704721B1028842F00102028004E002884F
:101960004FF6FE731A400280704730B502460020E1
:1019700000230024158A05EA0103958905EA01047C
:1019800013B10CB1012000E0002030BD1AB18389F1
:101990000B43838102E083898B4383817047818479
:1019A00070470000002202881D4B98420ED01D4B4C
:1019B00098420BD0B0F1804F08D01B4B984205D015
:1019C0001A4B984202D01A4B984204D14FF68F73AB
:1019D0001A404B881A43174B984207D0164B98422F
:1019E00004D04FF6FF431A40CB881A4302808B88FD
:1019F00083850B8803850A4B98420BD0094B98428C
:101A000008D00E4B984205D00D4B984202D00D4B9A
:101A1000984201D10B7A038601238382704700002C
:101A2000002C014000340140000400400008004048
:101A3000000C004000100040001400400040014035
:101A400000440140004801401FB501210520FFF777
:101A5000A1FD0D20ADF80C0048208DF80F0003A962
:101A60002448FFF7CDFA00210846FFF7A9FA022122
:101A70000020FFF7A5FA03210020FFF7A1FA0120BB
:101A8000019000208DF808000C208DF8090001203D
:101A90008DF80A0001A8FFF749FA0420019001A877
:101AA000FFF744FA0820019001A8FFF73FFA06204B
:101AB0008DF8000001208DF801008DF802008DF8EE
:101AC00003006846FFF7B6FB08208DF800000220EF
:101AD0008DF801008DF802006846FFF7ABFB092086
:101AE0008DF800006846FFF7A5FB03A000F03AFA66
:101AF0001FBD0000000801405B546F756368204BF8
:101B000065795D20E5A496E983A8E4B8ADE696ADD5
:101B1000E5889DE5A78BE58C96E5AE8CE688900D73
:101B20000A00000008B50F20ADF8000048208DF82D
:101B3000030069460148FFF763FA08BD0008014049
:101B400010B501212C48FFF72FFB80B90A2001F0C6
:101B5000E5F901212848FFF727FB40B900BF012123
:101B60002548FFF721FB0028F9D0012010BD0221F4
:101B70002148FFF719FB80B90A2001F0CFF90221B3
:101B80001D48FFF711FB40B900BF02211A48FFF7BB
:101B90000BFB0028F9D00220E8E704211648FFF7E4
:101BA00003FB80B90A2001F0B9F904211248FFF7BC
:101BB000FBFA40B900BF04210F48FFF7F5FA0028EF
:101BC000F9D00320D2E708210B48FFF7EDFA80B9DE
:101BD0000A2001F0A3F908210748FFF7E5FA40B908
:101BE00000BF08210448FFF7DFFA0028F9D00420DD
:101BF000BCE70020BAE700000008014010B540F241
:101C000025511D4800F0E7F810B31B4800F09EF97D
:101C1000C4B21A48008800F40040C8B917480088C8
:101C200000F4804060B10A2C03D0002013490880E2
:101C300020E01248008840F400401049088019E074
:101C40000D2C06D10D48008840F480400B490880D7
:101C500010E00A480088C0F30D0009490C540748F9
:101C60000088401C0549088008460088C72801DD17
:101C70000020088010BD0000003801402400002032
:101C80004800002010B54FF458713C4800F0A3F80C
:101C900038B14FF45871394800F082F8374800F0F5
:101CA00055F940F22551354800F095F800283FD00D
:101CB000324800F04BF9C4B2214631A000F052F98D
:101CC00031480088C0F30E00FF281CDA00212F489D
:101CD000FFF765FE2C480088C0F30E0018B90121FB
:101CE0002A48FFF736FE28480088C0F30E0028492E
:101CF0000C5425480088401C2349098860F30E01D4
:101D00002148018014E0204800886FF30E001E492E
:101D1000088008460088C0F30E001D490C541A487C
:101D20000088401C1849098860F30E01164801809C
:101D300040F22771114800F04EF8F0B115480088C4
:101D400015490988884212D01448134A1288815CC8
:101D50000A4800F000F910490988481CC11700EB37
:101D60005161C911A0EBC1110B4A118005E000229D
:101D700040F22771014800F058F810BD00440040BF
:101D800025303258200000002800002000040040C8
:101D9000100100202A0000202C000020100200204A
:101DA00010B50022002340F66A14A14200D100BF02
:101DB0000A1201249440A3B2DC43048010BD21B177
:101DC000828942F40052828104E082894DF6FF73D9
:101DD0001A408281704770B5024600240023002516
:101DE000002040F66A16B14200D100BFC1F342158F
:101DF00001F01F03012606FA03F3012D02D1968993
:101E0000334006E0022D02D1168A334001E0968A63
:101E100033400C12012606FA04F41688344013B13C
:101E20000CB1012000E0002070BDF0B50346002495
:101E300000260025002040F66A17B94200D100BFF5
:101E40001846C1F3421401F01F06012707FA06F5F0
:101E5000012C01D10C3004E0022C01D1103000E043
:101E600014301AB107682F43076002E00768AF43D8
:101E70000760F0BD2DE9F04786B005460E46002408
:101E8000A24600BFA1460027B08900B100BF2F467F
:101E90002C8A4CF6FF700440F08804432C82AC89F5
:101EA0004EF6F3100440B088318908437189084325
:101EB0000443AC81AC8A4FF6FF400440B089044330
:101EC000AC8201A8FFF776FB1F48874202D1DDF8FC
:101ED00010A001E0DDF80CA0A88900F4004040B19A
:101EE0000AEBCA0000EB0A1031684900B0FBF1F8B8
:101EF00007E00AEBCA0000EB0A1031688900B0FB6A
:101F0000F1F86420B8FBF0F004012009642101FB22
:101F10001089A88900F4004040B1322000EBC900CC
:101F2000B0FBF1F000F00700044308E0322000EBC2
:101F300009106421B0FBF1F000F00F0004432C8184
:101F400006B0BDE8F08700000038014001468888EF
:101F5000C0F308007047C1F308028280704700BFD9
:101F6000FEE700000FB4054B10B503A9044A029820
:101F700000F008F910BC5DF814FB0000712F000898
:101F8000200000200FB4084B10B504A902AA039842
:101F900000F0F8F8044602A9002000F081FC204679
:101FA00010BC5DF814FB0000A12800087CB50C00F3
:101FB0001D461646014601D0601E00E00020CDE916
:101FC0000010064B6A462946304600F0DBF8002C2C
:101FD00002D0009A002111707CBD00008B280008FF
:101FE00002E008C8121F08C1002AFAD170477047E2
:101FF000002001E001C1121F002AFBD17047000040
:102000002DE9FF5F82B00021DDE90430020DDDF82B
:1020100040B0034318D044F61050A2F2FF324243BE
:102020001514119801281FD0A5EB0B00401C5FEA86
:10203000000A4FF000064E4FDFF83891B046504688
:1020400015D5CAF1000413E0119801244AA3012810
:1020500001D16FEA0B010298119AC0E90031C0E981
:10206000024206B0BDE8F09FCBF10000DFE7044676
:102070000021404A491842EB0450CDE9001012E01B
:10208000E00707D032463B4640464946FEF7C7FBCD
:102090008046894632463B4610461946FEF7BFFB4E
:1020A00006460F466410002CEAD1DDE90401DDE9A3
:1020B0000023BAF1000F06DAFEF7B1FB42464B46A9
:1020C000FEF7ADFB05E0FEF734FA42464B46FEF75D
:1020D00030FA04460E460022284BFEF72BFC03D8AC
:1020E0004FF0FF30014607E00022254B20463146E5
:1020F000FEF778F9FEF705FC102409E0002C0ADB56
:102100000A220023FEF79AFA039B30321A55641E06
:1021100050EA0102F2D1641C039AC4F11103144481
:10212000119A012A03D0012208430DD10AE0084385
:1021300004D000204FF0110B119072E7A3EB0B05B8
:102140006D1E0DE05B4504DD4FF0000205F1010559
:1021500004E003DA4FF00002A5F10105002AECD0FB
:1021600002981199C0E90231C0E9004579E7000001
:10217000000014400000F03F300000000000F04379
:102180000000E03F2DE9FF4F95B09A46884606468D
:102190000025EEE1252877D100242746F94A0121C0
:1021A000039400E0044316F8013F203B01FA03F0DA
:1021B0001042F7D130782A2811D06FF02F033078F1
:1021C000A0F13002092A16D8039A44F0020402EB67
:1021D000820203EB42021044761C0390EFE758F8AA
:1021E000042B0392002A03DA504244F40054039073
:1021F00044F00204761C30782E2816D116F8010F10
:1022000044F004042A280DD06FF02F023078A0F19A
:102210003003092B09D807EB870302EB4303C718E8
:10222000761CF3E758F8047B761C30786C280FD0C6
:1022300006DC4C2817D068280DD06A2814D104E099
:10224000742810D07A280FD10DE044F400140AE06D
:1022500044F4801401E044F440147278824202D1C4
:1022600004F58014761C761C307866280BD013DCBD
:10227000582877D009DC002875D04528F6D04628A4
:10228000F4D047281AD193E118E0632835D06428A8
:1022900079D0652812D18BE1702873D008DC6728CB
:1022A000F1D069286FD06E280DD06F2806D1ACE030
:1022B00073282CD0752874D0782853D0524617999B
:1022C00090476D1C54E1C4F30250022809D0032842
:1022D0000DD0D8F8001004280DD00D6008F10408C6
:1022E00046E1D8F80010EA17C1E90052F6E7D8F83D
:1022F00000100D80F2E70D70F0E718F8041B8DF860
:10230000001000208DF80100EB46012003E058F892
:1023100004BB4FF0FF3061074FF0000102D40DE025
:1023200009F101018946B9420FDA8145F8DB1BF852
:1023300009100029F4D108E009F101018946814220
:10234000FADB1BF809100029F6D103985346A0EBDD
:10235000090721463846179A00F080FA284400EB16
:10236000090507E044E008E10DE01BF8010B5246C7
:1023700017999047B9F10109F7D2534621463846DB
:10238000179AF2E039E00A21C4F302524FF0000B31
:102390000091022A06D058F8040BC117032A09D06D
:1023A0000AE023E008F1070020F00702F2E802014A
:1023B000904605E000B2C117042A01D140B2C1170E
:1023C000002906DA0A460021404261EB02012D2273
:1023D00002E0220504D52B228DF80420012203E01F
:1023E000E20701D02022F7E7914657E00A2100E0FA
:1023F00010214FF0000B00910BE010214FF0000B6B
:1024000044F004040827009103E008204FF0000B7B
:102410000090C4F30252022A05D058F8040B0021A0
:10242000032A08D008E008F1070020F00702F2E8CC
:102430000201904603E080B2042A00D1C0B24FF0FE
:10244000000922072AD53278702A07D0DDF800C0AB
:102450008CF0100C5CEA0B0C05D00EE040228DF8DD
:102460000420012208E050EA010306D030238DF851
:1024700004308DF8052002229146009B83F008036A
:1024800053EA0B030AD150EA010201D1620705D5D4
:1024900030228DF804204FF001097F1E3278582A2F
:1024A00004D039A20C920CAA02920BE03BA2F9E7ED
:1024B0005B46009AFEF7C2F80C9B9B5C029A521E88
:1024C0000292137050EA0102F2D1029804A9081A8C
:1024D00000F1200B600702D524F4803400E00127CE
:1024E0005F4502DDA7EB0B0000E0002000EB0B01D5
:1024F000009003984944401A0390E00306D45346E1
:102500002146179A039800F0A9F90544002706E030
:1025100001A85246C05D179990476D1C7F1C4F451E
:10252000F6DBE0030CD553462146179A039800F0DA
:1025300095F9054404E030205246179990476D1CE8
:102540000099481E00900029F5DC08E002980299E5
:1025500052460078491C0291179990476D1CBBF1B7
:102560000001ABF1010BF1DC5BE100F065F9054422
:10257000761C307800287FF40DAE19B02846BDE8EF
:10258000F08F0000092801003031323334353637FE
:1025900038396162636465660000000030313233AF
:1025A000343536373839414243444546000000004F
:1025B000600700D4062708F1070020F00700F0E8C4
:1025C0000223804603F0004C5FEA0C0001D097A084
:1025D00009E0200501D596A005E0E00701D095A00F
:1025E00001E0AFF24C001390307823F000436528EF
:1025F0000CD006DC452809D046281DD047287FD1BD
:102600003BE0662818D067287AD136E00021112FE8
:1026100001DB112000E0781CCDE9000104A90CA821
:10262000FFF7EEFCDDE90D010C9A4FF0000B07F10E
:102630000109109200914EE04FF000400097CDE963
:10264000011004A90CA8FFF7DBFCDDE90D020C9BCF
:102650000F994FF0000B91461093009211B9791C1D
:1026600000EB0109B7EB090003D4C0F1FF3B07F110
:102670000109A9EB0700019042E0012F00DA0127D0
:102680000021112F01DD112000E03846CDE90001C5
:1026900004A90CA8FFF7B4FCDDE90D010C9A009128
:1026A0004FF0000BB946109221070FD4009A4A450B
:1026B00003DA914601E0A9F10109B9F1010F05DD45
:1026C000109AA9F10101515C3029F4D0B84202DA24
:1026D00010F1040F03DA0121CDE9011010E0002808
:1026E00003DC8344A9EB000102E0411C494500DD05
:1026F0008946A0EB0B00401C01904FF00040029077
:10270000200705D40198484502DB4FF0FF300190C7
:1027100000208DF84B0002980DF14B07B0F1004FEF
:1027200025D002200C902B200D90029800280CDA66
:10273000404202902D200D9007E00A210298FDF7FB
:1027400067FF3031029007F8011D0C99481E0C906C
:102750000029F2DC02980028EFD1791E0D9808704C
:10276000307800F0200040F0450007F8020D11A875
:10277000C01BC01D02901398007800B1012000EB2F
:102780000901019801EBE071029801440398401A95
:10279000401E0390E00306D453462146179A03983F
:1027A00000F05CF805441398007818B15246179968
:1027B00090476D1CE00323D553462146179A039892
:1027C00000F04CF805441BE0BBF1000F07DB00985C
:1027D000584504DD1098179910F80B0001E017997F
:1027E00030205246904701980BF1010B401E05F135
:1027F0000105019004D12E205246179990476D1C77
:10280000B9F10001A9F10109DEDC05E017F8010BBF
:102810005246179990476D1C0299481E0290002954
:10282000F4DC53462146179A03989EE62D000000DB
:102830002B000000200000002DE9F0410446002597
:102840001E461746880404D405E039462020B047C8
:102850006D1C641EF9D52846BDE8F0812DE9F041D4
:10286000044600251E469046C80301D5302700E0E7
:102870002027880404D505E041463846B0476D1C42
:10288000641EF9D52846BDE8F0814A68002A06D0C2
:102890000A68531C0B6010704868401E48607047FF
:1028A0000A68531C0B6010707047000070B500255B
:1028B0000BE04FF4FA7207A107A000F029F90446D3
:1028C0000CB9002070BD681CC5B20A2DF1DB0120D7
:1028D000F8E700004F4B00004154000070B590B085
:1028E00005460E4613A0FFF73DFB4FF47A721AA17E
:1028F0001AA000F00DF9044634B121461AA0FFF7E2
:1029000031FB012010B070BD25A0FFF72BFB334633
:102910002A462DA16846FFF735FB41F2883231A1E6
:10292000684600F0F5F804460CB90020EAE70120FB
:10293000E8E700005B44454255475D20E8AEBEE74E
:10294000BDAEE58D95E8BF9EE68EA5E6A8A1E5BCE7
:102950008F2E2E2E0D0A00004F4B000041542B43AA
:1029600049504D55583D30005B4552524F525D2005
:10297000E8AEBEE7BDAEE58D95E8BF9EE68EA5E666
:10298000A8A1E5BC8FE5A4B1E8B4A52120E99499FC
:10299000E8AFAFE7A0813A2025640D0A00000000EF
:1029A0005B535543434553535D20E58D95E8BF9EEA
:1029B000E68EA5E6A8A1E5BC8FE8AEBEE7BDAEE613
:1029C0008890E58A9F0D0A0041542B434950535487
:1029D0004152543D22544350222C222573222C254F
:1029E00073000000434F4E4E454354002DE9F04123
:1029F00006464FF4FA720FA10FA000F089F80746BF
:102A000017B10120BDE8F08100F070F980460DA1FA
:102A1000FDF79CFB04460BA1601CFDF797FB0546E8
:102A200000202870621C08A13046FFF7ABFA002096
:102A3000E8E700004F4B000041542B4349465352F6
:102A400000000000220000002573000008B50121ED
:102A50000420FEF79FFD1020ADF800008DF8030064
:102A600003208DF8020069460148FEF7C9FA08BD47
:102A70000008014010B5002210210848FEF7AAFB0B
:102A8000642000F04BFA012210210448FEF7A2FB5B
:102A90004FF4FA7000F042FA10BD00000008014047
:102AA00010B50446FFF7D2FFFFF7E4FF204600F021
:102AB0005BF8FFF7FBFE08B1012010BD0020FCE72A
:102AC00070B590B004460D462B46224608A16846D4
:102AD000FFF758FA42F210720AA1684600F018F89F
:102AE000064616B9002010B070BD0120FBE70000BB
:102AF00041542B43574A41503D222573222C222515
:102B0000732200005749464920474F54204950003E
:102B10002DE9F04105460E461446002700F00AF95B
:102B200029460FA000F0AAF806B114B90020BDE8AC
:102B3000F08110E000F0DAF8074647B13146384638
:102B4000FDF704FB08B10020F1E700F0F3F8641E84
:102B5000012000F0E3F9002CECD10220E7E70000AF
:102B600025730D0A0000000010B58AB0044601214B
:102B70000520FEF70FFD01214FF00210FEF7FAFCD1
:102B80000420ADF8240018208DF8270003208DF8CC
:102B9000260009A93348FEF733FA0820ADF82400CF
:102BA00004208DF8270009A92E48FEF729FA04947D
:102BB0000020ADF81400ADF81600ADF81800ADF81F
:102BC0001C000C20ADF81A0004A92748FFF752F9A1
:102BD00026208DF8200001208DF821008DF822009C
:102BE0008DF8230008A8FEF725FB012240F22551AD
:102BF0001D48FFF71AF901211B48FFF7E0F8EF2005
:102C0000ADF808004EF65F20ADF804000020ADF8E6
:102C10000A00ADF8060001A91448FEF7C3FE1D2006
:102C20008DF8200002208DF8210001208DF822006F
:102C300008A8FEF7FFFA012211460C48FEF7A6FE8F
:102C40000B4800886FF30E00094908800846008889
:102C500020F40040088000200649088006490880CA
:102C60000AB010BD000801400044004000040040CC
:102C7000280000202A0000202C0000200FB410B5EE
:102C8000A2B025A82190802101A8219B249AFFF7BA
:102C90008DF984B200202190002C1CDD00BF12E0D1
:102CA00001A9095C0E4A0F4B1B88D1540D4A1288AA
:102CB000511CCA1701EB5262D211A1EBC212094B8F
:102CC0001A80411C88B2A042EADB012240F227713F
:102CD0000548FFF7AAF822B010BC5DF814FB00000D
:102CE000100200202A00002000440040084800880C
:102CF0000121B1EBD03F08D1002005490988C1F37B
:102D00000E01044A5054104670470020FCE70000B2
:102D1000280000201001002005480088C00B20B1C9
:102D200003480088C0F30E0070470020FCE7000055
:102D300028000020054800886FF30E000349088032
:102D40000846008820F400400880704728000020D2
:102D500010B500244FF47A7208A109A0FFF7D8FE3D
:102D600050B9FFF7C3FF044634B108A12046FDF770
:102D7000EDF908B1012010BD0020FCE74F4B000029
:102D800041542B4357535441545553002B435753ED
:102D900054415455533A320030B585B000240025D3
:102DA00030E00523621C1DA11EA0FFF7DBF828A15F
:102DB0001AA0FFF785FE98B928A0FFF7D3F81421D1
:102DC0006846FDF7B8F96846FFF710FE18B969467E
:102DD00029A0FFF7C7F801202E490870012513E04C
:102DE000601C41002CA0FFF7BDF8601CC4B2611C40
:102DF00001EB4102C2EBC1114FF6FF7202EA011072
:102E000000F08CF8052CCCDB00BF052C03DB2DA0DB
:102E1000FFF7A8F80025284605B030BD7669766F23
:102E2000533138005B576946695D20E8BF9EE68EE6
:102E3000A5E588B0576946693A2025732028E5B092
:102E40009DE8AF952025642F2564290D0A00000018
:102E50003132333435363738000000005B5769466D
:102E6000695D2057694669E8BF9EE68EA5E68890B1
:102E7000E58A9F0D0A0000005B576946695D20E8FE
:102E80008EB7E58F964950E59CB0E59D803A2025A8
:102E9000730D0A00340000205B576946695D2057B6
:102EA000694669E8BF9EE68EA5E5A4B1E8B4A5EF42
:102EB000BC8C2564E7A792E5908EE9878DE8AF95F5
:102EC0000D0A00005B576946695D2057694669E84D
:102ED000BF9EE68EA5E5A4B1E8B4A5EFBC8CE5B72E
:102EE000B2E8BEBEE588B0E69C80E5A4A7E9878D80
:102EF000E8AF95E6ACA1E695B00D0A0010B5044622
:102F00006FF00400FEF7BEFC2046E11704EB5171A0
:102F1000C910014A116010BD140000200146134A77
:102F200012684A434FF47A735A434FF0E0235A61D0
:102F300000229A611A46126942F001021A6100BF2A
:102F40004FF0E022106900F001021AB100F4803263
:102F5000002AF5D04FF0E022126922F001024FF072
:102F6000E0231A6100229A617047000014000020DB
:102F700000BF054A128802F08002002AF9D0C2B2CE
:102F8000014B1B1D1A8070470038014010B500240A
:102F900016A0FEF7E7FF1EA0FEF7E4FF25A0FFF74F
:102FA0006DFE4FF4FA70FFF7B9FF4FF4E130FFF711
:102FB00077FD044624B921A0FEF7D4FF012010BDFF
:102FC000214628A0FEF7CEFF34A0FEF7CBFF3BA0A2
:102FD000FEF7C8FF46A0FEF7C5FF54A0FEF7C2FFEC
:102FE0005DA0FEF7BFFF0020E9E700005B537973A7
:102FF00074656D5D20E5889DE5A78BE58C96576926
:103000004669E6A8A1E59D972E2E2E0D0A00000028
:103010005B53797374656D5D20E6B58BE8AF95E41D
:10302000B8B2E58FA3E9809AE4BFA12E2E2E0D0A37
:103030000000000041540D0A000000005B5379734A
:1030400074656D5D2057694669E6A8A1E59D97E521
:10305000889DE5A78BE58C96E68890E58A9F0D0A0A
:10306000000000005B53797374656D5D20576946FD
:1030700069E6A8A1E59D97E5889DE5A78BE58C9677
:10308000E5A4B1E8B4A5EFBC8CE99499E8AFAFE74B
:10309000A0813A2025640D0A000000005B5379737B
:1030A00074656D5D20E6A380E69FA5E4BBA5E4B84A
:1030B0008BE587A0E782B93A0D0A00005B5379736C
:1030C00074656D5D20312E2057694669E6A8A1E53B
:1030D0009D97E7A1ACE4BBB6E8BF9EE68EA5E69857
:1030E000AFE590A6E6ADA3E7A1AE0D0A0000000093
:1030F0005B53797374656D5D20322E20E4B8B2E5C0
:103100008FA3E5BC95E8849A284750494F41322F58
:103110004750494F413329E8BF9EE68EA5E698AF58
:10312000E590A6E6ADA3E7A1AE0D0A005B53797367
:1031300074656D5D20332E2057694669E6A8A1E5C8
:103140009D97E794B5E6BA90E698AFE590A6E7A814
:10315000B3E5AE9A0D0A00005B53797374656D5D3B
:1031600020342E20E6B3A2E789B9E78E87E8AEBE09
:10317000E7BDAEE698AFE590A6E6ADA3E7A1AE2821
:10318000313135323030290D0A000000A0B048201E
:10319000FFF7B4FE4FF4E13001F0C0F9FEF722F87A
:1031A000FEF710F9FEF7B0FAFEF7BCFCFEF74CFC98
:1031B0004FF4E130FFF7D8FC7CA0FEF7D3FEFEF71A
:1031C00071F885A201210846FEF79EF986A2032127
:1031D0000120FEF799F9FFF7D9FE00283AD086A220
:1031E00003210120FEF790F987A205210120FEF7B7
:1031F0008BF9FFF7D1FD002826D087A0FEF7B2FE9D
:1032000094A205210120FEF77FF94FF47A70FFF7B1
:1032100085FE00F05FFE00F061FFFEF743F890A22C
:1032200001210846FEF770F991A201210220FEF764
:103230006BF992A201210320FEF766F993A2012106
:103240000420FEF761F90AE094A205210120FEF7AF
:103250005BF904E095A203210120FEF755F9A3E0F4
:1032600097480068401C96490860FEF769FC0446D0
:10327000032C06D10120FEF707FA9248FEF772FEF2
:1032800023E0042C06D10020FEF7FEF98E48FEF75D
:1032900069FE1AE0012C18D18C480078002811D062
:1032A00087488BA102686846FEF76CFE6846FCF70B
:1032B0005FFF85B296A0FEF755FE2946684600F0EE
:1032C00073FA02E0A2A0FEF74DFEAD48008800F4BC
:1032D000004030B1AB49ACA0FEF744FE0020A84945
:1032E00008807748006842F21071B0FBF1F201FBF0
:1032F0001200002849D1FFF72BFD05466DB1734838
:10330000007850B9A9A0FEF72DFE01206F49087082
:1033100050A20521FEF7F8F836E0002D28D16B48C1
:103320000078002824D0A8A0FEF71CFE00206749E2
:103330000870ACA205210120FEF7E6F8ADA0FEF76B
:1033400011FEB4A205210120FEF7DEF8FFF724FDEF
:1033500040B1B4A0FEF706FE3EA205210120FEF713
:10336000D3F811E0B6A205210120FEF7CDF80BE05D
:1033700055B15648007838B1B6A0FEF7F3FD35A236
:1033800005210120FEF7C0F800BF4D48006847F254
:103390003051B0FBF1F201FB120008B900F09AFDC8
:1033A0000120FFF7BBFD00BF5AE700005B537973B4
:1033B00074656D5D2057694669E6A8A1E59D97E4AF
:1033C000B8B2E58FA3E5889DE5A78BE58C96E688E6
:1033D00090E58A9F0D0A0000202053797374656D73
:1033E00020496E6974000000202057694669204911
:1033F0006E69742E2E2E00002020576946692049E0
:103400006E6974204F4B00002020436F6E6E656321
:1034100074696E672E2E2E005B53797374656D5D33
:103420002057694669E8BF9EE68EA5E5AE8CE68822
:1034300090EFBC8CE58786E5A487E8BF9BE8A18C6C
:10344000E4B88BE4B880E6ADA5E8AEA1E588920DBE
:103450000A0000002020436F6E6E6563746564008F
:10346000202053797374656D205265616479000082
:103470002020576946693A204F4B00002020546FA6
:10348000756368204B65793A204F4E0020205265C5
:103490006C61793A204F4646000000002020436FBF
:1034A0006E6E656374204661696C00002020576968
:1034B000466920496E6974204661696C000000000D
:1034C00030000020344C0008784C00083400002004
:1034D0007B2274797065223A2274657374222C22DF
:1034E0006D657373616765223A2248656C6C6F2065
:1034F00066726F6D2053544D3332222C2274696DE5
:10350000657374616D70223A256C757D0000000052
:103510005B53797374656D5D20E8A7A6E691B8E604
:103520008C89E994AE41E68C89E4B88BEFBC8CE5DC
:103530008F91E98081E6B58BE8AF95E695B0E68D91
:10354000AEE588B0E69C8DE58AA1E599A80D0A0054
:103550005B53797374656D5D2057694669E69CAA73
:10356000E8BF9EE68EA5EFBC8CE697A0E6B395E596
:103570008F91E98081E695B0E68DAE0D0A000000DE
:1035800024000020480000205B53797374656D5D52
:1035900020E694B6E588B0E4B8B2E58FA3E695B02E
:1035A000E68DAE3A2025730D0A0000005B57694690
:1035B000695D2057694669E9878DE696B0E8BF9E48
:1035C000E68EA50D0A0000005B576946695D20572D
:1035D000694669E8BF9EE68EA5E696ADE5BC800D1E
:1035E0000A0000002020446973636F6E6E65637487
:1035F000656400005B576946695D20E5B09DE8AFF2
:1036000095E9878DE696B0E8BF9EE68EA52E2E2E14
:103610000D0A000020205265636F6E6E6563746949
:103620006E6700005B576946695D20E9878DE69605
:10363000B0E8BF9EE68EA5E68890E58A9F0D0A0059
:1036400020205265636F6E6E656374204661696CFD
:10365000000000005B576946695D2057694669E8CC
:10366000BF9EE68EA5E6ADA3E5B8B80D0A00000042
:1036700030B591B0044600250020009022461CA1E0
:1036800001A8FEF77FFC01A91DA0FEF76BFC43F625
:10369000982223A101A8FFF73BFA002822D1FFF7C7
:1036A00025FB0546002D1DD01EA12846FCF74EFD2A
:1036B000002817D01DA12846FCF748FD28B11FA0FF
:1036C000FEF750FC002011B030BD6A4621A128460B
:1036D000FCF756FD012805D121A00099FEF742FC18
:1036E0000098F0E727A0FEF73DFC0020EBE7000084
:1036F00041542B50494E473D2225732200000000C3
:103700005B44454255475D20E58F91E980815069D2
:103710006E67E591BDE4BBA43A2025730D0A000055
:103720004F4B00002B50494E473A00002B50494E5A
:10373000473A54494D454F55540000005B444542BB
:1037400055475D2050696E67E8B685E697B60D0A65
:1037500000000000252A5B5E302D395D25750000D4
:103760005B44454255475D2050696E67E5938DE5A2
:10377000BA94E697B6E997B43A20256C75206D7334
:103780000D0A00005B44454255475D2050696E6755
:10379000E591BDE4BBA4E689A7E8A18CE5A4B1E866
:1037A000B4A50D0A0000000070B588B005460C46AF
:1037B000002618A118A0FFF791F8002824D123A013
:1037C000FEF7D0FB22462AA16846FEF7DBFB4FF44A
:1037D000FA622BA16846FFF79BF988B929A0FEF78A
:1037E000C1FB2846FFF74AFA4FF47A70FFF796FBC1
:1037F0004FF4FA622AA12BA0FFF78AF9012602E012
:103800002BA0FEF7AFFB02E031A0FEF7ABFB30468A
:1038100008B070BD383000007375626661737469FA
:103820006769617465642D617669732D756E726563
:10383000706C6576696E61626C652E6E67726F6B17
:103840002D667265652E6465760000005B536572B7
:103850007665725D20E8BF9EE68EA5E69C8DE58AC2
:10386000A1E599A8E68890E58A9F0D0A000000006E
:1038700041542B43495053454E443D2564000000BC
:103880003E0000005B5365727665725D20E58F91A6
:10389000E98081E695B0E68DAE2E2E2E0D0A000051
:1038A0004F4B000041542B434950434C4F5345006C
:1038B0005B5365727665725D20E58F91E98081E5E5
:1038C00091BDE4BBA4E5A4B1E8B4A50D0A000000D5
:1038D0005B5365727665725D20E8BF9EE68EA5E655
:1038E0009C8DE58AA1E599A8E5A4B1E8B4A50D0AE7
:1038F000000000002DE9F04788B006460F469046CC
:103900004FF00009002413E10320631C3A463146BE
:1039100000908BA0FEF726FB97A201210320FDF764
:10392000F3FD99A201210420FDF7EEFDFFF702FA55
:1039300098A0FEF717FB4FF47A72A1A1A1A0FFF7A0
:10394000E7F839463046FEF7C9FF00287AD1A0A033
:10395000FEF708FBA6A201210320FDF7D5FD8AA2F0
:1039600001210420FDF7D0FD0120A4490870FFF7D4
:10397000E1F94046FCF7FCFB82465246A0A16846AE
:10398000FEF700FB6946A2A0FEF7ECFA4FF4FA62DC
:10399000A7A16846FFF7BCF8002879D1A5A0FEF7DB
:1039A000E1FAB0A201210320FDF7AEFDB0A2012192
:1039B0000420FDF7A9FDFFF7BDF94046FFF75EF9CA
:1039C000AEA0FEF7CFFAB5A201210320FDF79CFDC2
:1039D000A7A201210420FDF797FDB2A0FEF7C2FACD
:1039E000B9A201210320FDF78FFDBAA20121042015
:1039F000FDF78AFD4FF4FA50FFF790FAFFF776F9DA
:103A00000546002D45D0B6A0FEF7ACFABCA0FEF7E7
:103A1000A9FA294684A0FEF7A5FAC3A12846FCF717
:103A200095FB80B1C2A0FEF79DFACBA20121032035
:103A3000FDF76AFDCBA201210420FDF765FD4FF0E3
:103A4000010933E055E0C9A12846FCF77FFB78B1B6
:103A5000C9A0FEF787FAD7A201210320FDF754FD84
:103A6000D7A201210420FDF74FFD4FF000091DE012
:103A7000D5A0FEF777FAB8A201210320FDF744FD97
:103A8000CFA201210420FDF73FFD4FF001090DE019
:103A90000DE0D7A0FEF766FAE0A201210320FDF7B2
:103AA00033FD8CA201210420FDF72EFD0CE0DDA0EA
:103AB000FEF758FAE5A201210320FDF725FDE5A256
:103AC00001210420FDF720FDE4A0FEF74BFA4FF49E
:103AD000FA623BA1E8A0FFF71BF8002047490870F5
:103AE0004FF47A70FFF71AFAB9F1000F00D022E014
:103AF0000CE0E4A0FEF736FAECA201210320FDF76A
:103B000003FDD4A201210420FDF7FEFC601CC4B219
:103B1000032C0DDA2146E8A0FEF724FA04EB440159
:103B2000C1EBC4114FF6FF7202EAC100FFF7F6F9CC
:103B3000032CFFF6E9AE00BF484608B0BDE8F087A9
:103B40005B44454255475D20E5B09DE8AF95E8BF31
:103B50009EE68EA5E69C8DE58AA1E599A83A2025EA
:103B6000733A25732028E5B09DE8AF952025642F92
:103B70002564290D0A0000002020436F6E6E6563E6
:103B800074696E67000000002020536572766572CC
:103B9000000000005B44454255475D20E5BCBAE5A6
:103BA00088B6E8AEBEE7BDAEE58D95E8BF9EE68E71
:103BB000A5E6A8A1E5BC8F2E2E2E0D0A0000000060
:103BC0004F4B000041542B4349504D55583D300058
:103BD0005B44454255475D20E8BF9EE68EA5E69CC6
:103BE0008DE58AA1E599A8E68890E58A9F0D0A00EF
:103BF0002020436F6E6E656374656400350000209D
:103C000041542B43495053454E443D256400000028
:103C10005B44454255475D20E58F91E980814154E1
:103C2000E591BDE4BBA43A2025730D0A0000000015
:103C30003E0000005B44454255475D20E694B6E5F2
:103C400088B0273E27E68F90E7A4BAE7ACA6EFBC82
:103C50008CE58F91E9808148545450E8AFB7E6B1C4
:103C6000820D0A00202053656E64696E67000000B3
:103C70002020526571756573740000005B444542F5
:103C800055475D2048545450E8AFB7E6B182E5B7D8
:103C9000B2E58F91E980810D0A0000002020536574
:103CA0006E7400005B44454255475D20E7AD89E5F1
:103CB000BE85E69C8DE58AA1E599A8E5938DE5BAD8
:103CC000942E2E2E0D0A0000202057616974696E13
:103CD000670000002020526573706F6E73650000EE
:103CE0005B44454255475D20E694B6E588B0E69CC6
:103CF0008DE58AA1E599A8E5938DE5BA940D0A00B2
:103D00005B53657276657220546573745D20E6942A
:103D1000B6E588B0E69C8DE58AA1E599A8E5938D86
:103D2000E5BA943A200D0A00323030204F4B0000A3
:103D30005B53657276657220546573745D20E69CF2
:103D40008DE58AA1E599A8E5938DE5BA94E6ADA342
:103D5000E5B8B80D0A000000202053657276657240
:103D60003A00000020204F4B0000000041542B433C
:103D7000495053454E4400005B536572766572208E
:103D8000546573745D20E694B6E588B04154E591BE
:103D9000BDE4BBA4E59B9EE698BEEFBC8CE6A8A163
:103DA000E59D97E78AB6E68081E5BC82E5B8B80D67
:103DB0000A00000020204D6F64756C653A00000019
:103DC00020204572726F72005B53657276657220B7
:103DD000546573745D20E69C8DE58AA1E599A8E59C
:103DE000938DE5BA94E5BC82E5B8B80D0A000000F1
:103DF0005B53657276657220546573745D20E69C32
:103E0000AAE694B6E588B0E69C8DE58AA1E599A876
:103E1000E5938DE5BA940D0A0000000020204E6F56
:103E2000000000005B536572766572205465737400
:103E30005D20E58F91E980814154E591BDE4BBA40B
:103E4000E5A4B1E8B4A50D0A000000002020436DF0
:103E5000643A000020204661696C00005B444542E2
:103E600055475D20E585B3E997AD544350E8BF9EC3
:103E7000E68EA50D0A00000041542B434950434CE7
:103E80004F5345005B5365727665722054657374B9
:103E90005D20E8BF9EE68EA5E69C8DE58AA1E599AA
:103EA000A8E5A4B1E8B4A50D0A0000002020436FE6
:103EB0006E6E6563740000005B44454255475D20AB
:103EC0002564E7A792E5908EE9878DE8AF952E2EC1
:103ED0002E0D0A0010B586B025A0FEF743F82FA0DE
:103EE000FEF740F837A0FEF73DF821A0FEF73AF8BC
:103EF0003FA201210846FDF707FB41A20121022054
:103F0000FDF702FB42A0FFF7B3FB0446002C13D0E1
:103F1000214643A0FEF726F84FA201210220FDF71B
:103F2000F3FA22464FA101A8FEF72CF801AA0121BD
:103F30000320FDF7E9FA0CE04DA0FEF713F85AA2B2
:103F400001210220FDF7E0FA5AA201210320FDF72A
:103F5000DBFA07A0FEF706F859A0FEF703F804A065
:103F6000FEF700F84FF4FA60FEF7D8FF06B010BD78
:103F70003D3D3D3D3D3D3D3D3D3D3D3D3D3D3D3D71
:103F80003D3D3D3D3D3D3D3D3D3D3D3D3D3D3D3D61
:103F90003D3D3D3D3D3D0D0A000000005B42616935
:103FA000647520546573745D20E6B58BE8AF95E7C2
:103FB00099BEE5BAA6E8BF9EE68EA52E2E2E0D0A66
:103FC000000000005B426169647520546573745D94
:103FD00020E6B58BE8AF95E59CB0E59D803A20776B
:103FE00077772E62616964752E636F6D0D0A00002C
:103FF00020204261696475205465737400000000DC
:10400000202050696E67696E672E2E2E000000001A
:104010007777772E62616964752E636F6D0000009B
:104020005B426169647520546573745D2050696EEC
:1040300067E799BEE5BAA63A20E68890E58A9F2010
:104040002D20E5938DE5BA94E697B6E997B420253F
:104050006C75206D730D0A002020537563636573C2
:10406000730000002020256C75206D730000000097
:104070005B426169647520546573745D2050696E9C
:1040800067E799BEE5BAA63A20E5A4B1E8B4A52051
:104090002D20E8B685E697B6E68896E4B88DE58FDC
:1040A000AFE8BEBE0D0A000020204661696C656461
:1040B00000000000202054696D656F7574000000D9
:1040C0005B426169647520546573745D20E6B58B4D
:1040D000E8AF95E5AE8CE688900D0A00F0B5CBB060
:1040E00050A0FDF73FFF5AA0FDF73CFF64A269A175
:1040F00075A0FDF737FF03217EA0FDF733FF49A030
:10410000FDF730FF84A063A35DA2854900900BA852
:10411000FDF738FF0025002601245BE081A0FDF7B4
:1041200021FF032221468AA0FDF71CFF3DA0FDF7D9
:1041300019FF032322468EA101A8FDF723FF90A2B9
:1041400001210846FDF7E0F901AA01210220FDF74F
:10415000DBF98FA0FDF706FF0BA997A0FDF702FF83
:1041600097A201210320FDF7CFF998A20121042095
:10417000FDF7CAF90BAA98A146A0FFF7BBFB0746BB
:10418000394696A0FDF7EEFE77B16D1C9CA0FDF7B9
:10419000E9FEA5A201210320FDF7B6F9A5A20121A0
:1041A0000420FDF7B1F90DE0761CA4A0FDF7DAFEBE
:1041B0009DA201210320FDF7A7F9AAA20121042055
:1041C000FDF7A2F9A9A0FDF7CDFE40F6B830FEF745
:1041D000A5FE641C032CA1DD52A0FDF7C3FEAFA019
:1041E000FDF7C0FE03222946B4A0FDF7BBFE032263
:1041F0003146BBA0FDF7B6FE0AA0FDF7B3FEC1A293
:1042000001210846FDF780F903232A46C0A106A82C
:10421000FDF7B8FE06AA01210220FDF775F94BB0A3
:10422000F0BD00003D3D3D3D3D3D3D3D3D3D3D3D05
:104230003D3D3D3D3D3D3D3D3D3D3D3D3D3D3D3DAE
:104240003D3D3D3D3D3D3D3D3D3D0D0A00000000F5
:104250005B53657276657220546573745D20E6B5B4
:104260008BE8AF95E69C8DE58AA1E599A8E581A547
:10427000E5BAB7E78AB6E680812E2E2E0D0A000039
:104280002F6170692F6D6F6E69746F722F68656131
:104290006C746800737562666173746967696174D0
:1042A00065642D617669732D756E7265706C6576C7
:1042B000696E61626C652E6E67726F6B2D667265DA
:1042C000652E6465760000005B536572766572202A
:1042D000546573745D20E6B58BE8AF95E59CB0E559
:1042E0009D803A20687474703A2F2F257325730DC2
:1042F0000A0000005B536572766572205465737422
:104300005D20E6B58BE8AF95E6ACA1E695B03A2026
:104310002564E6ACA10D0A007669766F533138004A
:10432000C44C00080D0A3D3D3D3D3D3D3D3D3D3DFC
:104330003D3D3D3D3D3D3D3D3D3D3D3D3D3D3D3DAD
:104340003D3D3D3D3D3D3D3D3D3D3D3D0D0A00007A
:104350005B53657276657220546573745D20E6B5B3
:104360008BE8AF95202325642F25640D0A000000FB
:104370005465737420253032642F256400000000DA
:1043800020205365727665722054657374000000B6
:104390005B53657276657220546573745D20E58F9A
:1043A00091E98081E8AFB7E6B182E58685E5AEB9EF
:1043B0003A200D0A0000000025730D0A00000000DD
:1043C000202053656E64696E6700000020205265EE
:1043D0007175657374000000383000005B536572BE
:1043E00076657220546573745D20E78AB6E6808135
:1043F000E8BF94E59B9EE580BC3A2025640D0A0049
:104400005B53657276657220546573745D20E6B502
:104410008BE8AF95E7BB93E69E9C3A20E68890E553
:104420008A9F0D0A000000002020526573756C748D
:104430003A00000020204F4B000000005B536572E3
:1044400076657220546573745D20E6B58BE8AF9590
:10445000E7BB93E69E9C3A20E5A4B1E8B4A50D0A1B
:104460000000000020204661696C00005B4445426A
:1044700055475D20E7AD89E5BE8533E7A792E8BFE4
:104480009BE8A18CE4B88BE4B880E6ACA1E6B58BE0
:10449000E8AF952E2E2E0D0A000000005B536572CA
:1044A00076657220546573745D20E6B58BE8AF9530
:1044B000E5AE8CE688900D0A000000005B53657243
:1044C00076657220546573745D20E68890E58A9F56
:1044D000E6ACA1E695B03A2025642F25640D0A00CC
:1044E0005B53657276657220546573745D20E5A434
:1044F000B1E8B4A5E6ACA1E695B03A2025642F2535
:10450000640D0A0020205465737420446F6E6500AA
:10451000202025642F2564204F4B000010B5044651
:1045200001210420FDF736F801210420FDF732F8BF
:1045300001218803FDF72EF84FF400701A49088016
:104540001820C870032088701848FCF759FD4FF4F4
:104550008060154908802820C8701448FCF750FD79
:1045600013480460002012498880C880088188812F
:104570000C2048810F48FDF77DFC01210D48FDF717
:104580001EFC25200C49087003204870887001200B
:10459000C8700846FCF74EFE012240F2255105483E
:1045A000FDF743FC10BD000018000020000801408A
:1045B00038000020003801401C00002000000000EE
:1045C000000000000000000000000000000000F8F3
:1045D00000000000000000333000000000100C0656
:1045E000100C0600000000000000000040C07840F1
:1045F000C0784000043F04043F040400007088FCBD
:1046000008300000001820FF211E0000F008F00014
:10461000E018000000211C031E211E0000F0088885
:10462000700000001E2123241927211010160E00EF
:10463000000000000000000000000000000000E09A
:1046400018040200000000071820400000020418AF
:10465000E00000000040201807000000404080F00B
:10466000804040000202010F01020200000000F041
:10467000000000000101011F010101000000000015
:104680000000000080B0700000000000000000008A
:104690000000000000010101010101010000000013
:1046A00000000000003030000000000000000000AA
:1046B00080601804006018060100000000E0100887
:1046C0000810E000000F102020100F00001010F85C
:1046D000000000000020203F20200000007008089B
:1046E000088870000030282422213000003008881B
:1046F000884830000018202020110E000000C02043
:1047000010F8000000070424243F240000F8088863
:10471000880808000019212020110E0000E01088F0
:1047200088180000000F112020110E000038080822
:10473000C83808000000003F000000000070880832
:1047400008887000001C222121221C0000E01008B3
:104750000810E0000000312222110F00000000C00C
:10476000C0000000000000303000000000000080A9
:104770000000000000008060000000000000804099
:1047800020100800000102040810200040404040B2
:104790004040400004040404040404000008102005
:1047A000408000000020100804020100007048084A
:1047B0000808F0000000003036010000C030C828B2
:1047C000E810E0000718272423140B000000C0386D
:1047D000E0000000203C23020227382008F88888E7
:1047E00088700000203F202020110E00C0300808F3
:1047F00008083800071820202010080008F80808CA
:104800000810E000203F202020100F0008F88888C2
:10481000E8081000203F20202320180008F888888E
:10482000E8081000203F200003000000C030080806
:104830000838000007182020221E020008F808008F
:104840000008F808203F210101213F20000808F856
:10485000080800000020203F202000000000080879
:10486000F8080800C08080807F00000008F888C039
:1048700028180800203F20012638200008F80800EA
:1048800000000000203F20202020300008F8F80021
:10489000F8F80800203F003F003F200008F830C033
:1048A0000008F808203F200007183F00E010080823
:1048B0000810E0000F10202020100F0008F8080852
:1048C0000808F000203F210101010000E010080865
:1048D0000810E0000F18242438504F0008F888888A
:1048E00088887000203F2000030C3020007088086A
:1048F000080838000038202121221C00180808F878
:10490000080818000000203F2000000008F80800F8
:104910000008F808001F202020201F0008788800C9
:1049200000C83808000007380E010000F80800F839
:104930000008F800033C0700073C030008186880E3
:104940008068180820302C03032C30200838C80059
:10495000C83808000000203F2000000010080808A8
:10496000C83808002038262120201800000000FE4A
:10497000020202000000007F40404000000C30C0F6
:1049800000000000000000010638C0000002020222
:10499000FE000000004040407F00000000000402D4
:1049A00002020400000000000000000000000000FF
:1049B00000000000808080808080808000020204EF
:1049C00000000000000000000000000000008080E7
:1049D000808000000019242222223F2008F8008055
:1049E00080000000003F112020110E000000008018
:1049F00080800000000E11202020110000000080A7
:104A00008088F800000E112020103F2000008080D8
:104A100080800000001F222222221300008080F0EC
:104A2000888888180020203F202000000000808017
:104A300080808000006B94949493600008F800805C
:104A400080800000203F210000203F2000809898B7
:104A5000000000000020203F202000000000008017
:104A60009898000000C08080807F000008F8000057
:104A700080808000203F24022D302000000808F8AC
:104A8000000000000020203F202000008080808067
:104A900080808000203F20003F20003F80800080F9
:104AA00080800000203F210000203F200000808007
:104AB00080800000001F202020201F0080800080B8
:104AC0008000000080FFA12020110E000000008067
:104AD00080808000000E112020A0FF808080800058
:104AE0008080800020203F21200001000000808085
:104AF000808080000033242424241900008080E07A
:104B0000808000000000001F202000008080000046
:104B100000808000001F202020103F208080800027
:104B20000080808000010E30080601008080008037
:104B3000008080800F300C030C300F00008080005C
:104B4000808080000020312E0E3120008080800087
:104B50000080808080818E70180601000080808037
:104B6000808080000021302C2221300000000000D5
:104B7000807C020200000000003F40400000000076
:104B8000FF00000000000000FF0000000002027CA7
:104B9000800000000040403F0000000000060101CE
:104BA0000202040400000000000000000040404039
:104BB00040404040404041414141414040404040F0
:104BC000404040404040404040404040400502029C
:104BD000020202020202020202020202022020205B
:104BE00020202020202020020202020202029090B7
:104BF00090909090101010101010101010101010B5
:104C00001010101010101010020202020202888808
:104C10008888888808080808080808080808080814
:104C200008080808080808080202020240000000FC
:104C3000AD4B00085B53797374656D5D20E8A7A6E2
:104C4000E691B8E68C89E994AE43E68C89E4B88BAA
:104C5000EFBC8CE68993E5BC80E7BBA7E794B5E59C
:104C600099A832EFBC88E6B0B4E6B3B5E4BE9BE7E2
:104C700094B5EFBC890D0A005B53797374656D5D63
:104C800020E8A7A6E691B8E68C89E994AE44E68CC4
:104C900089E4B88BEFBC8CE585B3E997ADE7BBA79A
:104CA000E794B5E599A832EFBC88E5819CE6ADA212
:104CB000E6B0B4E6B3B5E4BE9BE794B5EFBC890DAE
:104CC0000A00000047455420257320485454502FB3
:104CD000312E310D0A486F73743A2025730D0A4343
:104CE0006F6E6E656374696F6E3A20636C6F736587
:104CF0000D0A6E67726F6B2D736B69702D62726F28
:104D0000777365722D7761726E696E673A20310D27
:104D10000A557365722D4167656E743A2053544D80
:104D200033322D436C69656E742F312E300D0A4479
:104D300065766963652D49443A2025730D0A0D0A8D
:104D400000000000644D0008000000203800000052
:104D5000E01F00089C4D0008380000206806000095
:104D6000F01F000800000000010203040102030418
:104D70000607080902040608000000000000000001
:104D80000000000000000000000000000000000023
:0C4D900000000000000000000000000017
:04000005080000ED02
:00000001FF
