:020000040800F2
:10000000E009002005010008CD110008AF1000082C
:10001000C91100081F0B0008A73A000800000000E3
:100020000000000000000000000000007117000840
:100030009D0C0008000000000D150008D3330008D7
:100040001F0100081F0100081F0100081F01000810
:100050001F0100081F010008A10C00081F01000873
:100060001D0D0008DD0D00081F0100081F0100081C
:100070001F0100081F0100081F0100081F010008E0
:100080001F0100081F0100081F0100081F010008D0
:100090001F0100081F0100081F0100081F010008C0
:1000A0001F0100081F0100081F0100081F010008B0
:1000B000353400081F0100081F0100081F01000857
:1000C0001F0100081F0100081F0100081F01000890
:1000D0001F01000821360008A9360008B9370008BA
:1000E0001F0100081F0100081F010008DFF810D0E1
:1000F00000F0DAFB0048004769570008AFF30080C2
:10010000E00900200648804706480047FEE7FEE772
:10011000FEE7FEE7FEE7FEE7FEE7FEE7FEE7FEE7B7
:10012000D5330008ED000008D2B201E000F8012B41
:10013000491EFBD270470022F6E710B513460A4667
:1001400004461946FFF7F0FF204610BD30B50546BE
:100150002A460B4612F8010B13F8014B08B1A042D6
:10016000F8D01CB1002802D06D1CF1E7284630BD44
:1001700010B5044604E00B7800F8013B03B1491CBC
:10018000521EF8D2204610BDCAB2401E10F8011F00
:100190008A4202D00029F9D100207047421C10F891
:1001A000011B0029FBD1801A704710B5002200E026
:1001B000521C835C8C5CA34201D1002BF8D1D8B2D5
:1001C000E1B2401A10BD70B5064603F0ADFC0468FC
:1001D00005460A220021304600F0F8F92C6070BD77
:1001E00030B480EA010202F0004530F0004221F014
:1001F000004013D090B1C30DD40DC2F31601C0F36B
:100200001600E41A41F4000140F400027D349142EA
:1002100001D3641C00E04900002C02DA30BC00204D
:1002200070474FF400000023914201D3891A034321
:1002300040084FEA4101F7D151B1914202D14FF04C
:10024000004105E002D24FF0010101E06FF0010131
:1002500003EBC450284430BC00F0F0B92DE9FE4F48
:10026000804681EA0300C00F0C46009021F0004157
:1002700023F00045B8EB0200A94105D240462146D3
:1002800090461C460B46024623F00040104347D0E0
:10029000270DC7F30A00C3F30A510290401A0190D8
:1002A00040286BDAC3F3130040F4801B0098924699
:1002B00020B10023D2EB030A63EB0B0B01985946E4
:1002C000C0F14002504600F052F906460D46504635
:1002D0005946019A00F05AF910EB080061410024D8
:1002E00087EA115284EAE7731A4340D0009A62B356
:1002F000019A012A4FEA075215DC001B61EB02014B
:100300004FF0004202EA0752CDE90042001C41F5DD
:10031000801132462B4600F0D7F903B0BDE8F08FCC
:1003200040462146F9E7001B61EB0201001C41F544
:10033000801300185B412018A2F5001747EB03015A
:1003400040EAD570B6196D4111E06D084FEA3606E6
:1003500045EAC0754FEA0752001B61EB0201001C21
:1003600041F5801149084FEA3000001951413246E9
:100370002B4603B0BDE8F04F00F097B9009801227A
:1003800040000023D0EB020263EBE07300982146AB
:100390004FEAE074B8EB000061EB0401E9E783F099
:1003A00000435BE781F0004158E72DE9F04D81EA19
:1003B000030404F0004B21F0004514464FF0000AFE
:1003C00023F0004150EA050220D054EA01021DD07A
:1003D000C5F30A570246C5F31303C1F31300C1F373
:1003E0000A5640F4801543F48013A7EB0608101B4F
:1003F000D64608F2FD3873EB050002D308F1010878
:1004000001E092185B41B8F1000F03DA00200146C9
:10041000BDE8F08D00204FF48011064684460EE0C2
:10042000171B73EB050705D3121B63EB050306438C
:100430004CEA010C49084FEA300092185B4150EA3F
:100440000107EDD152EA030012D082EA040083EAE8
:100450000501084305D0101BAB4106D20122002341
:1004600006E000224FF0004302E06FF0010253105B
:100470001AEB06004CEB085110EB0A0041EB0B01A4
:10048000BDE8F04D00F011B9C10F80EAE0700844FA
:10049000CA079623002100F0DAB8962300221146FD
:1004A00000F0D5B800F0004230F000400AD0C10D95
:1004B00001F56071C0F3160042EA0151C20840071D
:1004C000114370470020014670470000002801DBFF
:1004D000C0F10040002901DBC1F1004188427047B2
:1004E00030B50B46014600202022012409E021FA04
:1004F00002F59D4205D303FA02F5491B04FA02F501
:100500002844151EA2F10102F1DC30BD2DE9F05F97
:100510000546002092469B46884606468146402472
:100520001BE0284641464746224600F0CFF9534695
:100530005A46C01A914110D311461846224600F07F
:1005400016F82D1A67EB01084F46224601200021BC
:1005500000F00DF817EB00094E41201EA4F1010434
:10056000DFDC484631462A464346BDE8F09F202A54
:1005700004DB203A00FA02F1002070479140C2F1FA
:10058000200320FA03F3194390407047202A06DB2A
:10059000CB17203A41FA02F043EAE07306E041FA51
:1005A00002F3D040C2F1200291400843194670473F
:1005B0003A2800D2303820F02002412A01D3A2F19B
:1005C0003700884201D34FF0FF3070472DE9F047E4
:1005D00091460F4680460446002614F8015B2DB173
:1005E00000F084F90068405DC007F6D12B2D02D0E1
:1005F0002D2D18D0641E4A463946204600F07AF95F
:1006000027B13968A14201D1C7F8008071054FF0C8
:1006100002040BD54042002803DD03F085FA046094
:10062000A007BDE8F08746F48066E4E70028F8DA22
:1006300003F07AFA04606FF00040F2E70029A8BFE7
:100640007047401C490008BF20F00100704710B4FB
:10065000B0FA80FC00FA0CF050EA010404BF10BCB0
:10066000704749B1CCF1200421FA04F411FA0CF1DD
:1006700018BF012121430843A3EB0C01CB1D4FEA16
:1006800000614FEA102042BF002010BC704700EB11
:10069000C35010440029A4BF10BC7047401C49003F
:1006A00008BF20F0010010BC704710B5141E73F194
:1006B000000408DA401C41F1000192185B411A4322
:1006C00001D120F0010010BD2DE9F04D92469B466E
:1006D00011B1B1FA81F202E0B0FA80F22032904614
:1006E000FFF745FF04460F4640EA0A0041EA0B01C6
:1006F00053465A46084313D0114653EA010019D015
:10070000C8F14002504600F0E1F805460E4650465A
:1007100059464246FFF72BFF084305D0012004E06D
:1007200020463946BDE8F08D0020054346EAE076D4
:100730002C4337430A986305E40AA0EB0800002223
:10074000FD0A44EA47540A3002D500200146E9E791
:10075000010510196941DDE9084500196941BDE845
:10076000F04DA2E72DE9FE4F81EA030404F00044B6
:1007700021F0004100944FF0000B23F0004350EAB9
:1007800001045ED052EA03045BD0C3F30A54C1F300
:100790000A552C44A4F2F3340194A0FB0254C1F393
:1007A000130141F48011C3F3130343F4801301FBDD
:1007B000024400FB034E840A970A44EA815447EA44
:1007C0008357A4FB076802958D0A05FB07854FEA4E
:1007D000932C04FB0C542705029D4FEA065847EA68
:1007E0001637B5EB08056EEB070C870E920E47EA3D
:1007F000811742EA8312A7FB0201B6EB0B0164EBFF
:1008000000042B0D43EA0C335E1844EB1C50DA460F
:100810005146E7FB0201C5F313044FEA0B3343EAE9
:1008200014534FEA0432019C43EA0603A4F10C047A
:100830000294009CCDE900B4FFF746FF03B0BDE889
:10084000F08F00200146F9E7C1F30A52C1F313010A
:1008500040F2FF3341F480119A4202DA002001464F
:10086000704740F233439A42A2F2334202DC5242D2
:1008700000F02CB8FFF77BBE30B5041E71F1000408
:1008800004DB4FF00044404264EB0101141E73F19D
:10089000000405DB1C464FF00043524263EB0403A7
:1008A000994208BF904230BD064C074D06E0E06813
:1008B00040F0010394E8070098471034AC42F6D3A7
:1008C000FFF718FCF865000818660008202A04DB0A
:1008D000203A21FA02F00021704721FA02F3D040B9
:1008E000C2F1200291400843194670470048704702
:1008F000206500082DE9F05F824600780027154644
:100900008B460AF10104B946302801D09DB113E0AD
:1009100014F8010B0127782803D0582801D045B1DD
:100920000AE00DB1102D07D10027102514F8010B96
:1009300002E0082500E00A250026B0460EE005FB8F
:10094000080005FB06F1012701EB10461FFA80F8AD
:10095000B6F5803F00D3B94614F8010B2946FFF7DE
:1009600027FE0028EBDABBF1000F05D00FB1641EA3
:1009700000E05446CBF80040B9F1000F06D003F078
:10098000D3F802210160C81EBDE8F09F48EA064086
:10099000FAE721B1826842F00102826003E08268D6
:1009A00022F0010282607047014600208A6802F04E
:1009B00004020AB1012000E0002070470146C86C23
:1009C00080B270470246002013680B400BB1012033
:1009D00000E000207047014600208A6802F008020B
:1009E0000AB1012000E000207047000030B5024647
:1009F0000020002350680F4C20400D790C6844EA19
:100A000005242043506090680B4C2040D1E90254EB
:100A10002C434D7944EA450420439060D06A20F489
:100A200070000C7C641EE4B2234340EA0350D062A1
:100A300030BD0000FFFEF0FFFDF7F1FFF0B504460A
:100A40000D4600200021092D11DDE068A5F10A0600
:100A500006EB4607072606FA07F18843A5F10A06C2
:100A600006EB460603FA06F10843E0600CE0206955
:100A700005EB4507072606FA07F1884305EB45060F
:100A800003FA06F108432061072A0FDA606B561E4D
:100A900006EB86071F2606FA07F18843561E06EB6B
:100AA000860605FA06F10843606322E00D2A0FDA94
:100AB000206BD61F06EB86071F2606FA07F1884330
:100AC000D61F06EB860605FA06F10843206310E000
:100AD000E06AA2F10D0606EB86071F2606FA07F16B
:100AE0008843A2F10D0606EB860605FA06F10843D7
:100AF000E062F0BD816841F008018160704721B17A
:100B0000826842F4A002826003E0826822F4A002BC
:100B100082607047816841F004018160704700BFC6
:100B2000FEE7000001480078704700002700002021
:100B300001488078704700002700002008B5012197
:100B4000042000F0F5FC1020ADF800008DF8030043
:100B500003208DF802006946034800F0B9F910211E
:100B6000014800F09DFA08BD0008014070B500F092
:100B700085F81021344800F091FA142004F014FD97
:100B80001021314800F08CFA1E2004F037FD00F0EF
:100B900067F8282004F032FD00F05AF800284BD105
:100BA00000BF00F055F80028FBD000BF00F050F85F
:100BB0000128FBD0002424E000251EE000BF00F047
:100BC00047F80028FBD01E2004F018FD1F48005DE8
:100BD0004006000E1D49085500F03AF8012805D1DD
:100BE0001A48005D40F001001849085500BF00F0A8
:100BF0002FF80128FBD0681CC5B2082DDEDB601C75
:100C0000C4B2052CD8DB00F039F810210E4800F0F2
:100C100047FA0E4800780D49497808440B4989780D
:100C200008440A49C978084408490979884201D129
:100C3000002070BD0120FCE700F020F810210248E0
:100C400000F02EFA0120F4E7000801402700002000
:100C500010B51021014800F00FFA10BD0008014046
:100C600008B51020ADF8000048208DF80300694653
:100C7000014800F02DF908BD0008014008B510201A
:100C8000ADF800008DF8030003208DF802006946DE
:100C9000014800F01DF908BD000801407047000040
:100CA00010B5012000F000F980B10A2004F07CFCAE
:100CB0000121074800F0E0F928B906A002F0F6FE8D
:100CC0000EA002F0F3FE012000F0E8F810BD0000D5
:100CD000000801405B546F756368204B65795D20A7
:100CE000E4B8ADE696ADEFBC9A41E994AEE8A2ABAC
:100CF000E68C89E4B88B0D0A000000005B53797321
:100D000074656D5D20E8A7A6E691B8E68C89E99444
:100D1000AE41E68C89E4B88B0D0A000010B50420C2
:100D200000F0C2F8002828D00A2004F03DFC04217D
:100D3000124800F0A1F900281CD111A002F0B6FE63
:100D4000012000F06FFC184802F0B0FE17A201214C
:100D5000084600F0A7FB18A20121022000F0A2FB28
:100D600017A20121032000F09DFB19A201210420FC
:100D700000F098FB042000F091F810BD000801403D
:100D80005B546F756368204B65795D20E4B8ADE610
:100D900096ADEFBC9A43E994AEE8A2ABE68C89E449
:100DA000B88B0D0A00000000246500082020526561
:100DB0006C6179203200000020204F4E00000000BE
:100DC000202057617465722050756D70000000001E
:100DD0002020506F776572656400000010B5082010
:100DE00000F062F8002828D00A2004F0DDFB08217A
:100DF000124800F041F900281CD111A002F056FE63
:100E0000002000F00FFC184802F050FE17A201214C
:100E1000084600F047FB18A20121022000F042FB27
:100E200017A20121032000F03DFB19A2012104209B
:100E300000F038FB082000F031F810BD0008014038
:100E40005B546F756368204B65795D20E4B8ADE64F
:100E500096ADEFBC9A44E994AEE8A2ABE68C89E487
:100E6000B88B0D0A0000000068650008202052655C
:100E70006C6179203200000020204F4646000000BF
:100E8000202057617465722050756D70000000005D
:100E9000202053746F707065640000000149086081
:100EA0007047000014040140014600200022074B57
:100EB0001B6803EA0102054B14331B680B4013B196
:100EC0000AB1012000E0002070470000000401404A
:100ED0002DE9F041024600250026002000230024D1
:100EE000002791F803C00CF00F0591F803C00CF037
:100EF000100CBCF1000F03D091F802C04CEA0505BC
:100F000091F800C0BCF1000F31D0146800202BE034
:100F10004FF0010C0CFA00F3B1F800C00CEA030624
:100F20009E4220D183004FF00F0C0CFA03F7BC4314
:100F300005FA03FC4CEA040491F803C0BCF1280F45
:100F400006D14FF0010C0CFA00FCC2F814C00AE004
:100F500091F803C0BCF1480F05D14FF0010C0CFA19
:100F600000FCC2F810C0401C0828D1D31460B1F8AE
:100F700000C0BCF1FF0F34DD546800202EE000F10A
:100F8000080C4FF0010808FA0CF3B1F800C00CEAA5
:100F900003069E4221D183004FF00F0C0CFA03F799
:100FA000BC4305FA03FC4CEA040491F803C0BCF10D
:100FB000280F05D100F1080C08FA0CF8C2F81480CB
:100FC00091F803C0BCF1480F07D100F1080C4FF0B5
:100FD000010808FA0CF8C2F81080401C0828CED38B
:100FE0005460BDE8F0810000F0B50A4600230024FB
:100FF0000021002500F00046B6F1004F02D11D4E41
:10100000F16901E01B4E7168C0F3034583B200F43F
:101010004016B6F5401F08D121F07061154E766874
:1010200026F07066134F7E6012E000F48016B6F56D
:10103000801F06D1032606FA05F4A14341F0706132
:1010400006E0460D360103FA06F6B14341F0706141
:1010500022B1460D360103FA06F6314300F0004690
:10106000B6F1004F02D1034EF16101E0014E716013
:10107000F0BD0000000001400246002093680B40D4
:101080000BB1012000E00020704702460020D36829
:101090000B400BB1012000E0002070474161704718
:1010A000016170470AB1016100E04161704700BF12
:1010B000FEE7000008B50121082000F039FA4FF4DE
:1010C0008050ADF8000010208DF8030003208DF84B
:1010D000020069460848FFF7FBFE4FF40050ADF8E8
:1010E000000069460448FFF7F3FE4FF44051024800
:1010F000FFF7D6FF08BD0000000C014070B500F0FE
:101100004BF8054642F21070684340F6FF71B0FBA1
:10111000F1F084B2204670BD00B587B001214FF4D4
:10112000017000F005FA2020ADF8180000208DF8BD
:101130001B0006A91648FFF7CBFE002001908DF892
:1011400008008DF809004FF46020039000200490FF
:1011500001208DF8140001A90E48FFF747FC01217A
:101160000C48FFF716FC0B48FFF7C4FC00BF09480A
:10117000FFF731FC0028FAD10648FFF7CBFC00BF8F
:101180000448FFF711FC0028FAD107B000BD0000A9
:10119000000801400024014010B505230122194632
:1011A0000848FFF74BFC01210648FFF7A8FC00BFE9
:1011B00002210448FFF706FC0028F9D00148FFF798
:1011C000FDFB10BD0024014000BFFEE7704700009A
:1011D00070B5002100230F22C47804B3154C246895
:1011E00004F4E064C4F5E064210AC1F10403CA40D8
:1011F000447804FA03F184781440214309010E4C29
:101200000678A155047804F01F050124AC40057848
:101210006D11AD0005F1E025C5F8004109E0047845
:1012200004F01F050124AC40044D0678761145F802
:10123000264070BD0CED00E000E400E080E100E03D
:1012400070B500240EE00021204600F0E0F80025F3
:1012500004E0002000F04AF9681CC5B2802DF8DBDC
:10126000601CC4B2082CEEDB70BD000008B5012183
:10127000082000F05DF914208DF8030003208DF89C
:1012800002004020ADF8000069460A48FFF720FE42
:101290008020ADF8000069460648FFF719FE0122DC
:1012A00040210448FFF7FEFE012280210148FFF79C
:1012B000F9FE08BD000C014070B50546002413E09E
:1012C0008020204100EA050280210E48FFF7EAFE57
:1012D000012240210B48FFF7E5FE0022402109488A
:1012E000FFF7E0FE601CC4B2082CE9DB01224021BC
:1012F0000448FFF7D7FE002240210248FFF7D2FE44
:1013000070BD0000000C014010B501228021094889
:10131000FFF7C8FE012240210648FFF7C3FE002266
:1013200080210448FFF7BEFE002240210148FFF75C
:10133000B9FE10BD000C014010B500228021074805
:10134000FFF7B0FE012240210448FFF7ABFE012267
:1013500080210248FFF7A6FE10BD0000000C0140EE
:1013600070B5002406E0002500E06D1CB5F57A7F1D
:10137000FBD3641CB4F57A7FF5D3FFF777FFAE207B
:1013800000F0A4F8D52000F0A1F8802000F09EF82D
:10139000A82000F09BF83F2000F098F8D32000F040
:1013A00095F8002000F092F8402000F08FF8A1207E
:1013B00000F08CF8C82000F089F8DA2000F086F8F8
:1013C000122000F083F8812000F080F8CF2000F098
:1013D0007DF8D92000F07AF8F12000F077F8DB20D2
:1013E00000F074F8302000F071F8A42000F06EF8DE
:1013F000A62000F06BF88D2000F068F8142000F0B3
:1014000065F8AF2000F062F8FFF71AFF70BD70B505
:1014100005460C4645F0B00000F058F8102141EAAE
:10142000141000F053F804F00F0000F04FF870BDF6
:101430002DE9F04105460E461746721ED206110EE2
:101440006A1E5206100EFFF7E2FF002409E0A7F122
:101450002001134A02EB0111085D00F047F8601CFF
:10146000C4B2082CF3DB721ED206110E6A1E0123D1
:1014700003EB4202D0B2FFF7CAFF00240BE0A7F152
:101480002001074A02EB011204F10801505C00F050
:101490002DF8601CC4B2082CF1DBBDE8F08100001F
:1014A000AC5E00082DE9F04107460E4615460024C3
:1014B00007E02A5D3019C1B23846FFF7B9FF601C5A
:1014C000C4B2285D0028F4D1BDE8F08110B504460F
:1014D000FFF71AFF7820FFF7EFFE0020FFF7ECFE82
:1014E0002046FFF7E9FEFFF727FF10BD10B50446C1
:1014F000FFF70AFF7820FFF7DFFE4020FFF7DCFE52
:101500002046FFF7D9FEFFF717FF10BD7047000018
:1015100029B1064AD2690243044BDA6104E0034A66
:10152000D2698243014BDA6170470000001002402B
:1015300029B1064A92690243044B9A6104E0034AC6
:1015400092698243014B9A6170470000001002408B
:1015500030B500210022002400232D4D6D6805F0D8
:101560000C0121B1042905D0082923D105E0294D1A
:10157000056022E0274D05601FE0254D6D6805F4EC
:101580007012234D6D6805F48034022505EB9242FC
:101590001CB9214D554305600BE01D4D6D6805F4E8
:1015A00000351DB11C4D5543056002E0194D5543F2
:1015B000056002E0174D056000BF00BF144D6D6867
:1015C00005F0F0010909154D6B5C0568DD404560CB
:1015D0000F4D6D6805F4E061090A104D6B5C4568BC
:1015E000DD4085600A4D6D6805F46051C90A0B4DF8
:1015F0006B5C4568DD40C560054D6D6805F4404194
:10160000890B074D6B5CC568B5FBF3F5056130BD13
:101610000010024000127A0000093D000000002086
:101620001000002070B5044621460AA002F03EFAE0
:1016300022464FF400511048FFF734FD4FF400519B
:101640000D48FFF722FD054629460CA002F02EFAB0
:1016500070BD00005B52656C61795D20E7BBA7E758
:1016600094B5E599A832E8AEBEE7BDAEE4B8BA3AA3
:101670002025640D0A000000000801405B52656CE3
:1016800061795D20E7BBA7E794B5E599A832E5AE9F
:101690009EE99985E78AB6E680813A2025640D0A9D
:1016A0000000000008B501210520FFF741FF4FF4BD
:1016B000C040ADF8000010208DF8030003208DF825
:1016C000020069460648FFF703FC01210548FFF7C1
:1016D0008BFC4FF4C0410248FFF7E0FC08BD00005E
:1016E000000801400004300008B501210420FFF784
:1016F0001FFF4FF48070ADF8000010208DF803003C
:1017000003208DF8020069460648FFF7E1FB4FF41D
:1017100080710448FFF7C2FC4FF4965002F082F843
:1017200008BD00000008014070B505460E460024C3
:101730004FF480710C48FFF7B3FC00BF0CE0295D4B
:101740000A4802F0ACF900BF4021084802F0D9F87D
:101750000028F9D0601CC4B2B442F0DB4FF48071B1
:101760000148FFF79BFC70BD0008014000480040A5
:10177000704700002DE9F74F86B00C461646002052
:10178000049000270320039004B136B986A002F02C
:101790008DF9022009B0BDE8F08F00202060307084
:1017A00088A002F083F995A0069902F07FF900F075
:1017B0008DFE20B198A002F079F90220EAE7002717
:1017C000E8E0002F03DD791CA0A002F06FF903F020
:1017D0001BFE322003F0E8FE03F016FE1E2003F08D
:1017E000E3FEA2A002F062F9A9A0069903F0DAFDD7
:1017F0000A2003F0D9FEB1A2B2A1B6A003F0D2FD37
:101800000A2003F0D1FEB7A003F0CCFD0A2003F0BC
:10181000CBFE79A003F0C6FDB9A002F047F94FF462
:10182000967003F0C1FE0020029040F6B83005909B
:1018300092E003F0D3FD8146B9F1000F6FD0484626
:10184000FEF7ACFC05462946B7A002F02FF9C0A16F
:101850004846FEF77BFC20B1C1A002F027F9012029
:101860000290C7A14846FEF771FC20B9C7A14846BF
:10187000FEF76CFC20B1C9A002F018F9002089E73E
:10188000D0A14846FEF762FC00285CD0CDA14846B6
:10189000FEF75CFC8246BAF1000F2BD03A2150468D
:1018A000FEF772FC0190019818B322210198401CA8
:1018B000FEF76AFC054625B12221681CFEF764FC90
:1018C00000E0002080469DB1B8F1000F10D0A8EBD9
:1018D0000500401E08280BDAA8EB0500421E691C13
:1018E0003046FEF745FC0021A8EB0500401E3154B0
:1018F00000BF00BFB6A14846FEF728FC8346BBF1F7
:10190000000F0AD03A215846FEF73EFC05461DB1AD
:10191000681CFEF758FC206000BF324600E014E06F
:10192000ADA0216802F0C2F83046FEF737FC50B196
:101930002068002807DD3246B2A0216802F0B6F820
:10194000012004900CE003F05FFD0A2003F02CFE60
:1019500005980A3880B20590059800283FF769AFCE
:1019600000BF0498012804D1B1A002F09FF8012023
:1019700010E7029830B1049820B9B5A002F096F8AB
:10198000002007E7BAA002F091F8C82003F00CFE8F
:10199000781CC7B203988742FFF613AFC0A0039923
:1019A00002F084F80220F5E65B436F6D6D616E64B2
:1019B0005D20E58F82E695B0E99499E8AFAF0D0A16
:1019C000000000000D0A5B436F6D6D616E645D2069
:1019D0003D3D3D3D3D3D3D3D3D3D20E69FA5E8AFC4
:1019E000A2E68EA7E588B6E68C87E4BBA4203D3D41
:1019F0003D3D3D3D3D3D3D3D0D0A00005B436F6D6E
:101A00006D616E645D20E689A7E8A18CE599A8491F
:101A1000443A2025730D0A005B436F6D6D616E645F
:101A20005D20E8BF9EE68EA5E4B88DE58FAFE79414
:101A3000A8EFBC8CE697A0E6B395E69FA5E8AFA219
:101A4000E68C87E4BBA40D0A000000005B436F6DC9
:101A50006D616E645D20E7ACAC20256420E6ACA12E
:101A6000E9878DE8AF952E2E2E0D0A005B436F6D32
:101A70006D616E645D20E58F91E98081E69FA5E848
:101A8000AFA2E8AFB7E6B1822E2E2E0D0A000000FD
:101A9000474554202F6170692F6163747561746FBD
:101AA00072732F25732F636F6D6D616E64732048A1
:101AB0005454502F312E310D0A0000003330303095
:101AC000000000003139322E3136382E3132382EB6
:101AD00034330000486F73743A2025733A25730D30
:101AE0000A000000436F6E6E656374696F6E3A2082
:101AF0006B6565702D616C6976650D0A00000000EC
:101B00005B436F6D6D616E645D20E7AD89E5BE85F9
:101B1000E69C8DE58AA1E599A8E5938DE5BA942E1A
:101B20002E2E0D0A000000005B436F6D6D616E6428
:101B30005D20E694B6E588B0E5938DE5BA94E5B806
:101B4000A720282564E5AD97E88A82290D0A0000C0
:101B5000485454502F312E312032303000000000D4
:101B60005B436F6D6D616E645D20E694B6E588B091
:101B70004854545020323030204F4B0D0A000000A2
:101B80002264617461223A6E756C6C002264617427
:101B900061223A206E756C6C000000005B436F6D33
:101BA0006D616E645D20E6B2A1E69C89E5BE85E6C6
:101BB00089A7E8A18CE79A84E68C87E4BBA40D0A88
:101BC0000000000022636F6D6D616E6422000000F2
:101BD00022696422000000005B436F6D6D616E64DA
:101BE0005D20E8A7A3E69E90E7BB93E69E9C3A2083
:101BF00069643D25642C20636F6D6D616E643D25C5
:101C0000730D0A005B436F6D6D616E645D20E69439
:101C1000B6E588B0E68C87E4BBA43A2069643D252C
:101C2000642C20636F6D6D616E643D25730D0A0039
:101C30005B436F6D6D616E645D20E68C87E4BBA4D1
:101C4000E8A7A3E69E90E68890E58A9F0D0A00002B
:101C50005B436F6D6D616E645D20E697A0E5BE85A8
:101C6000E689A7E8A18CE68C87E4BBA40D0A0000F6
:101C70005B436F6D6D616E645D20E69CAAE694B671
:101C8000E588B0E5938DE5BA94EFBC8CE58786E5F1
:101C9000A487E9878DE8AF952E2E2E0D0A0000004F
:101CA0005B436F6D6D616E645D20E9878DE8AF9574
:101CB0002564E6ACA1E5908EE4BB8DE69CAAE69493
:101CC000B6E588B0E5938DE5BA940D0A00000000F2
:101CD00010B51248007808B9002010BD03F094FB3D
:101CE000322003F061FC03F079FB0446A4B10CA19F
:101CF0002046FEF72BFA20B90BA12046FEF726FA64
:101D000040B10BA001F0D2FE002004490870124936
:101D10000870E2E703F078FB0120DEE734000020E2
:101D2000434C4F53454400004552524F520000006F
:101D30005B536572766572436F6D6D5D20E6A380BF
:101D4000E6B58BE588B0E8BF9EE68EA5E696ADE5E4
:101D5000BC800D0A00000000350000202DE9F04F86
:101D600093B006460F4690460020029000244FF0A4
:101D7000030B5BA001F09AFE43463A46314666A04B
:101D800001F094FE00F0A2FB30B171A001F08EFED4
:101D9000012013B0BDE8F08F43463A4679A103A86D
:101DA00001F094FE03A8FEF7F9F900F0FF0A03A979
:101DB0007CA001F07BFE002489E0002C03DD611C87
:101DC0007FA001F073FE03F01FFB322003F0ECFB59
:101DD00003F01AFB1E2003F0E7FB83A001F066FE70
:101DE00031468AA003F0DEFA0A2003F0DDFB92A25E
:101DF00093A197A003F0D6FA0A2003F0D5FB98A090
:101E000003F0D0FA0A2003F0CFFB51469DA003F067
:101E1000C9FA0A2003F0C8FBA0A003F0C3FA0A2005
:101E200003F0C2FB3BA003F0BDFA0A2003F0BCFBA9
:101E300003A9A1A003F0B6FAA0A001F037FE4FF469
:101E4000967003F0B1FB40F6B8392DE003F0C6FA06
:101E50000546002D21D02846FEF7A0F90146019045
:101E6000A0A001F023FEAAA12846FEF76FF910B149
:101E7000ABA001F01BFEB5A12846FEF767F920B91B
:101E8000B6A12846FEF762F928B1B8A001F00EFE0F
:101E9000012002900BE003F0B7FA0A2003F084FB64
:101EA000A9F10A001FFA80F9B9F1000FCEDC00BFDA
:101EB000029820B1B5A001F0F9FD002069E7BBA0B0
:101EC00001F0F4FDC82003F06FFB601CC4B25C4558
:101ED000FFF673AF5946C2A001F0E8FD012058E7B4
:101EE0000D0A5B436F6D6D616E645D203D3D3D3D50
:101EF0003D3D3D3D3D3D20E7A1AEE8AEA4E68C87EB
:101F0000E4BBA4E689A7E8A18C203D3D3D3D3D3DD5
:101F10003D3D3D3D0D0A00005B436F6D6D616E649C
:101F20005D20E689A7E8A18CE599A849443A2025D7
:101F3000732C20E68C87E4BBA449443A2025642C0A
:101F400020E78AB6E680813A2025730D0A0000005A
:101F50005B436F6D6D616E645D20E8BF9EE68EA58C
:101F6000E4B88DE58FAFE794A8EFBC8CE697A0E6C8
:101F7000B395E7A1AEE8AEA4E68C87E4BBA40D0A56
:101F8000000000007B22636F6D6D616E645F6964A9
:101F9000223A25642C22737461747573223A2225C7
:101FA00073227D005B436F6D6D616E645D204A53EB
:101FB0004F4EE695B0E68DAE3A2025730D0A00002F
:101FC0005B436F6D6D616E645D20E7ACAC20256492
:101FD00020E6ACA1E9878DE8AF95E7A1AEE8AEA415
:101FE0002E2E2E0D0A0000005B436F6D6D616E6436
:101FF0005D20E58F91E98081E7A1AEE8AEA4E8AF6E
:10200000B7E6B1822E2E2E0D0A0000005041544337
:1020100048202F6170692F6163747561746F7273EA
:102020002F25732F636F6D6D616E64732048545458
:10203000502F312E310D0A003330303000000000B7
:102040003139322E3136382E3132382E34330000C9
:10205000486F73743A2025733A25730D0A00000007
:10206000436F6E74656E742D547970653A2061709B
:10207000706C69636174696F6E2F6A736F6E0D0A9D
:1020800000000000436F6E74656E742D4C656E67C2
:1020900074683A2025640D0A00000000436F6E6EDC
:1020A000656374696F6E3A206B6565702D616C694C
:1020B00076650D0A00000000257300005B436F6D1C
:1020C0006D616E645D20E7AD89E5BE85E69C8DE5BA
:1020D0008AA1E599A8E5938DE5BA942E2E2E0D0AD6
:1020E000000000005B436F6D6D616E645D20E694DF
:1020F000B6E588B0E7A1AEE8AEA4E5938DE5BA9465
:1021000020282564E5AD97E88A82290D0A000000A1
:10211000485454502F312E3120323030000000000E
:102120005B436F6D6D616E645D20E69C8DE58AA1F9
:10213000E599A8E5938DE5BA943A20485454502087
:10214000323030204F4B0D0A0000000022737563BF
:1021500063657373223A7472756500002273756348
:1021600063657373223A2074727565005B436F6D0B
:102170006D616E645D20E68C87E4BBA4E7A1AEE8E8
:10218000AEA4E68890E58A9F210D0A005B436F6D3F
:102190006D616E645D20E68C87E4BBA4E7A1AEE8C8
:1021A000AEA4E5AE8CE688900D0A00005B436F6D2F
:1021B0006D616E645D20E69CAAE694B6E588B0E7A2
:1021C000A1AEE8AEA4E5938DE5BA94EFBC8CE587AB
:1021D00086E5A487E9878DE8AF952E2E2E0D0A009F
:1021E0005B436F6D6D616E645D20E9878DE8AF952F
:1021F0002564E6ACA1E5908EE4BB8DE69CAAE7A140
:10220000AEE8AEA4E68890E58A9F0D0A00000000C3
:1022100070B50024032535480078002813D03448D1
:10222000007800280FD0FFF753FD20B131A001F056
:102230003DFC002070BD3CA001F038FC00202B4983
:1022400008702B490870002423E02A46611C43A033
:1022500001F02CFC4FF47A724DA14EA002F010FC5C
:10226000C82003F0A1F94EA14FA002F0DFF830B969
:1022700001201E49087050A001F018FC0BE001215C
:1022800055A001F013FC4FF47A7003F08DF9601C37
:10229000C4B2AC42D9DB00BF1448007820B95BA0BF
:1022A00001F004FC0120C5E74FF4967003F07CF9BF
:1022B00065A001F0FBFB02F0D5F978B16CA001F04C
:1022C000F5FB4FF4FA6232A132A002F0D9FB0020F4
:1022D00006490870064908700220ABE7012004494E
:1022E00008706DA001F0E2FB0020A3E7340000209D
:1022F000350000205B536572766572436F6D6D5DCE
:1023000020E5B7B2E5A484E4BA8EE8BF9EE68EA5C8
:10231000E78AB6E68081EFBC8CE697A0E99C80E96D
:10232000878DE8BF9E0D0A005B5365727665724328
:102330006F6D6D5D20E8BF9EE68EA5E5B7B2E696AF
:10234000ADE5BC80EFBC8CE9878DE696B0E5BBBA05
:10235000E7AB8B2E2E2E0D0A000000005B5365723A
:10236000766572436F6D6D5D20E5BBBAE7AB8B544C
:102370004350E8BF9EE68EA52028E5B09DE8AF95C6
:102380002025642F2564292E2E2E0D0A0000000022
:102390004F4B000041542B434950434C4F53450091
:1023A00033303030000000003139322E3136382ED3
:1023B0003132382E343300005B53657276657243D8
:1023C0006F6D6D5D20544350E8BF9EE68EA5E68894
:1023D00090E58A9F0D0A00005B5365727665724333
:1023E0006F6D6D5D20544350E8BF9EE68EA5E5A459
:1023F000B1E8B4A5EFBC8C2564E7A792E5908EE91F
:10240000878DE8AF952E2E2E0D0A00005B53657266
:10241000766572436F6D6D5D20544350E8BF9EE654
:102420008EA5E5A4B1E8B4A5EFBC8CE5B7B2E8BED3
:10243000BEE69C80E5A4A7E9878DE8AF95E6ACA150
:10244000E695B00D0A0000005B5365727665724335
:102450006F6D6D5D20E8BF9BE585A5E9808FE4BCCD
:10246000A0E6A8A1E5BC8F2E2E2E0D0A00000000CC
:102470005B536572766572436F6D6D5D20E8BF9B3F
:10248000E585A5E9808FE4BCA0E6A8A1E5BC8FE5C1
:10249000A4B1E8B4A50D0A005B536572766572437A
:1024A0006F6D6D5D20E9808FE4BCA0E6A8A1E5BC5E
:1024B0008FE68890E58A9FEFBC8CE8BF9EE68EA5EC
:1024C000E5B7B2E5BBBAE7AB8B0D0A0010B500F07B
:1024D000D3F808B1002010BD02A001F0E7FAFFF721
:1024E00097FEF8E75B536572766572436F6D6D5DBD
:1024F00020E8BF9EE68EA5E4B88DE58FAFE794A8EF
:10250000EFBC8CE5B09DE8AF95E9878DE8BF9E2EC6
:102510002E2E0D0A0000000010B500200D49087095
:102520000D4908700DA001F0C1FA18A001F0BEFA23
:1025300022A224A127A001F0B9FA42F210712FA023
:1025400001F0B4FA36A001F0B1FA3FA001F0AEFA02
:1025500010BD000034000020350000200D0A3D3D74
:102560003D3D3D3D3D3D3D3D3D3D3D3D3D3D3D3D9B
:102570003D3D3D3D3D3D3D3D3D3D3D3D3D3D3D3D8B
:102580003D3D3D3D3D3D0D0A000000005B53657241
:10259000766572436F6D6D5D20E5889DE5A78BE5DF
:1025A0008C96E69C8DE58AA1E599A8E9809AE4BF1E
:1025B000A1E6A8A1E59D970D0A0000003330303058
:1025C000000000003139322E3136382E3132382EAB
:1025D000343300005B536572766572436F6D6D5DD9
:1025E00020E69C8DE58AA1E599A8E59CB0E59D8053
:1025F0003A2025733A25730D0A0000005B5365727B
:10260000766572436F6D6D5D20E4B88AE4BCA0E925
:1026100097B4E99A943A202564206D730D0A00005E
:102620005B536572766572436F6D6D5D20E995BF92
:10263000E8BF9EE68EA5E6A8A1E5BC8FE5B7B2E5AA
:1026400090AFE794A80D0A003D3D3D3D3D3D3D3D29
:102650003D3D3D3D3D3D3D3D3D3D3D3D3D3D3D3DAA
:102660003D3D3D3D3D3D3D3D3D3D3D3D3D3D3D3D9A
:102670000D0A0D0A0000000010B50548007810B1E1
:102680000448007808B9002010BDFFF721FBFBE7E4
:1026900034000020350000202DE9F04F8DB00024DB
:1026A000FFF714FF18B100200DB0BDE8F08FFEF762
:1026B0005DFA00282ED1FEF73BFA8146FEF732FA8A
:1026C0000546B9F1000F11DD4A465FA101A801F0EE
:1026D000FDF901A8FDF762FD00F0FF0A524601A9CD
:1026E0005DA000F0EDF808B1601CC4B2002D11DD52
:1026F0002A4655A101A801F0E9F901A8FDF74EFD10
:1027000000F0FF0A524601A955A000F0D9F808B11F
:10271000601CC4B2FEF7F2FC0646002E11DD324604
:1027200049A101A801F0D2F901A8FDF737FD00F099
:10273000FF0A524601A94CA000F0C2F808B1601C83
:10274000C4B20AAB09AA0BA90CA800F069FD0028C5
:1027500074D1BDF82400FDF7A0FE834600210C983B
:10276000FDF7B4FE16D20C98FDF79CFE07463A46DC
:102770000B463FA101A801F0A9F901A8FDF70EFD44
:1027800000F0FF0A524601A93DA000F099F808B1F7
:10279000601CC4B200210B98FDF798FE16D20B986E
:1027A000FDF780FE07463A460B4631A101A801F02D
:1027B0008DF901A8FDF7F2FC00F0FF0A524601A9CD
:1027C00031A000F07DF808B1601CC4B20021584669
:1027D000FDF77CFE16D25846FDF764FE07463A46E2
:1027E0000B4623A101A801F071F901A8FDF7D6FC61
:1027F00000F0FF0A524601A925A000F061F808B1D7
:10280000601CC4B200210A98FDF760FE16D20A9837
:10281000FDF748FE07463A460B4615A101A801F010
:1028200055F901A8FDF7BAFC00F0FF0A524601A9CC
:1028300019A000F045F808B1601CC4B214B918A082
:1028400001F034F920462FE77B2276616C75652212
:102850003A25642E30307D00542D30303100000098
:10286000482D3030310000004C2D30303100000058
:102870007B2276616C7565223A252E32667D0000DA
:10288000532D303031000000542D30303200000024
:10289000452D303031000000502D30303100000027
:1028A0005B53656E736F725D20E5908EE58FB0E4CB
:1028B000B88AE4BCA0E5A4B1E8B4A50D0A00000004
:1028C0002DE9F0470646884617464FF00009FFF706
:1028D000FDFD10B10020BDE8F08702F095FD32202B
:1028E00002F062FE02F090FD142002F05DFE31461F
:1028F00027A002F057FD052002F056FE2EA230A1BF
:1029000033A002F04FFD052002F04EFE34A002F08D
:1029100049FD052002F048FE39463AA002F042FD8A
:10292000052002F041FE3DA002F03CFD052002F032
:102930003BFE41A002F036FD052002F035FE414687
:102940003EA002F02FFD40F2DC551CE002F046FDF7
:1029500004469CB13AA12046FDF7F8FB48B93CA1DA
:102960002046FDF7F3FB20B93DA12046FDF7EEFB25
:1029700010B14FF0010908E002F046FD681E85B273
:10298000012002F011FE002DE0DC00BF4846A2E766
:10299000504F5354202F6170692F73656E736F729F
:1029A000732F25732F6461746120485454502F3164
:1029B0002E310D0A000000003330303000000000DE
:1029C0003139322E3136382E3132382E3433000040
:1029D000486F73743A2025733A25730D0A0000007E
:1029E000436F6E74656E742D547970653A20617012
:1029F000706C69636174696F6E2F6A736F6E0D0A14
:102A000000000000436F6E74656E742D4C656E6738
:102A100074683A2025640D0A00000000436F6E6E52
:102A2000656374696F6E3A206B6565702D616C69C2
:102A300076650D0A000000000D0A000025730000F5
:102A4000485454502F312E312032303000000000D5
:102A50002273756363657373223A7472756500003F
:102A60002273756363657373223A2074727565000F
:102A70002DE9F04F91B082460E4614464FF0000B00
:102A800070A001F013F851467DA001F00FF8314617
:102A900083A001F00BF8214689A001F007F80CB1E2
:102AA0008EA000E08FA003460EB190A000E090A0A1
:102AB000024690A101A801F009F801A8FDF76EFBFC
:102AC000C7B23A4601A992A000F0F0FF0EB187A06C
:102AD00000E087A00246314698A000F0E7FF0CB165
:102AE0007EA000E07FA0024621469EA000F0DEFF0F
:102AF000A5A000F0DBFFFFF7E9FC30B1AFA000F0CC
:102B0000D5FF012011B0BDE8F08F02F07DFC6420FC
:102B100002F04AFD02F078FC322002F045FDB2A03E
:102B200000F0C4FF5146B9A002F03CFC0A2002F0BC
:102B30003BFDBFA2C0A1C4A002F034FC0A2002F0F9
:102B400033FDC5A002F02EFC0A2002F02DFD39460F
:102B5000CAA002F027FC0A2002F026FDCDA002F058
:102B600021FC0A2002F020FD44A002F01BFC0A20F8
:102B700002F01AFD01A9CEA002F014FCCDA000F0D5
:102B800095FF4FF0000940F6B83840E202F026FC0D
:102B90000546002D55D0D4A12846FDF7D7FA28B117
:102BA000D5A000F083FF4FF001091AE0DDA128460F
:102BB000FDF7CCFA18B1DF4800F078FF11E0DEA194
:102BC0002846FDF7C3FA18B1DFA000F06FFF22E23C
:102BD000E7A12846FDF7BAFA18B1E9A000F066FFB0
:102BE00019E2F2A12846FDF7B1FA20B9F3A128466F
:102BF000FDF7ACFA28B1F5A000F058FF4FF0010B3B
:102C000009E2B9F1000F1BD0FBA12846FDF79EFA9F
:102C1000B0B1642002F0C8FC02F0E0FB054675B1DB
:102C2000E2A12846FDF792FA20B9E4A12846FDF773
:102C30008DFA20B1E5A000F039FF4FF0010BEAE179
:102C4000DCE1DDE10D0A5B4163747561746F725DF7
:102C5000203D3D3D3D3D3D3D3D3D3D20E4B88AE4C8
:102C6000BCA0E689A7E8A18CE599A8E78AB6E6802A
:102C700081203D3D3D3D3D3D3D3D3D3D0D0A00003A
:102C80005B4163747561746F725D20E689A7E8A18A
:102C90008CE599A849443A2025730D0A00000000EC
:102CA0005B4163747561746F725D207374617465E8
:102CB000E58F82E695B03A2025640D0A00000000F9
:102CC0005B4163747561746F725D206D6F6465E55F
:102CD0008F82E695B03A2025640D0A006D616E750D
:102CE000616C00006175746F000000006F6E000081
:102CF0006F6666007B227374617465223A222573C5
:102D0000222C226D6F6465223A222573227D0000F9
:102D10005B4163747561746F725D204A534F4EE678
:102D200095B0E68DAE3A2025732028E995BFE5BA27
:102D3000A63A202564290D0A000000005B41637457
:102D40007561746F725D207374617465E8BDACE683
:102D50008DA23A202564202D3E20222573220D0AC3
:102D6000000000005B4163747561746F725D206DDB
:102D70006F6465E8BDACE68DA23A202564202D3E47
:102D800020222573220D0A005B4163747561746F04
:102D9000725D203D3D3D3D3D3D3D3D3D3D3D3D3D2B
:102DA0003D3D3D3D3D3D3D3D3D3D3D3D3D3D3D3D53
:102DB0003D3D3D3D3D3D3D3D0D0A00005B416374A1
:102DC0007561746F725D20E8BF9EE68EA5E4B88DD4
:102DD000E58FAFE794A8EFBC8CE697A0E6B395E447
:102DE000B88AE4BCA00D0A005B4163747561746F1E
:102DF000725D20E58F91E9808148545450E8AFB767
:102E0000E6B1822E2E2E0D0A0000000050415443E0
:102E100048202F6170692F6163747561746F7273DC
:102E20002F257320485454502F312E310D0A0000A5
:102E300033303030000000003139322E3136382E38
:102E40003132382E34330000486F73743A202573C2
:102E50003A25730D0A000000436F6E74656E742D81
:102E6000547970653A206170706C69636174696F40
:102E70006E2F6A736F6E0D0A00000000436F6E7450
:102E8000656E742D4C656E6774683A2025640D0A72
:102E900000000000436F6E6E656374696F6E3A20C8
:102EA0006B6565702D616C6976650D0A0000000028
:102EB000257300005B4163747561746F725D204817
:102EC000545450E8AFB7E6B182E5B7B2E58F91E967
:102ED0008081EFBC8CE7AD89E5BE85E5938DE5BAD1
:102EE000942E2E2E0D0A0000485454502F312E31AE
:102EF00020323030000000005B4163747561746FF4
:102F0000725D20E69C8DE58AA1E599A8E5938DE5A3
:102F1000BA943A204854545020323030204F4B0D50
:102F20000A000000485454502F312E3120343030E4
:102F300000000000B4650008485454502F312E3171
:102F400020343034000000005B4163747561746F9D
:102F5000725D20E689A7E8A18CE599A8E4B88DE523
:102F6000AD98E59CA82028343034290D0A000000D3
:102F7000485454502F312E3120353030000000009D
:102F80005B4163747561746F725D20E69C8DE58AA8
:102F9000A1E599A8E58685E983A8E99499E8AFAF0A
:102FA0002028353030290D0A000000002273756397
:102FB00063657373223A74727565000022737563DA
:102FC00063657373223A2074727565005B416374A4
:102FD0007561746F725D20E689A7E8A18CE599A8F8
:102FE000E78AB6E68081E69BB4E696B0E68890E58F
:102FF0008A9F210D0A0000007D00000002F004FA03
:10300000A8F101001FFA80F8012002F0CDFAB8F112
:10301000000F3FF7BBAD00BFBBF1000F03D00BA00B
:1030200000F044FD0BE0B9F1000F05D015A000F051
:103030003DFD4FF0010B02E020A000F037FDBBF199
:10304000000F01D000205DE502205BE55B41637469
:103050007561746F725D20E689A7E8A18CE599A877
:10306000E78AB6E68081E5B7B2E68890E58A9FE513
:10307000908CE6ADA5E588B0E69C8DE58AA1E59942
:10308000A80D0A005B4163747561746F725D20E680
:1030900094B6E588B0323030E5938DE5BA94EFBC54
:1030A0008CE4BD86E69CAAE694B6E588B0E7A1AEBE
:1030B000E8AEA4E695B0E68DAE0D0A005B41637400
:1030C0007561746F725D20E689A7E8A18CE599A807
:1030D000E78AB6E68081E58F91E98081E5AE8CE6EE
:1030E0008890EFBC88E69CAAE694B6E588B0E7A194
:1030F000AEE8AEA4EFBC890D0A00000010B500F0E8
:1031000001F810BD0CB50020019000903348006814
:1031100040F480303149086000BF3048006800F456
:10312000003000900198401C0190009818B9019857
:10313000B0F5A06FF1D12948006800F4003010B15B
:103140000120009001E0002000900098012843D168
:103150002348006840F010002149086008460068D4
:1031600020F0030008600846006840F00200086094
:103170001A4840681949486008464068486008464F
:10318000406840F4806048600846406820F47C1045
:1031900048600846406840F4E81048600846006807
:1031A00040F08070086000BF0C48006800F00070BC
:1031B0000028F9D00948406820F00300074948601A
:1031C0000846406840F00200486000BF034840687D
:1031D00000F00C000828F9D10CBD000000100240DE
:1031E0000020024030B502460B464FF6FF7000212A
:1031F00012E0545C604000240AE000F0010525B1B3
:103200004AF2010585EA600000E04010651CECB25E
:10321000082CF2DB4C1CE1B29942EADB30BD000025
:103220002DE9F04F87B00746884691469A46002020
:103230000590069001208DF8140003208DF81500EC
:1032400000208DF816008DF817008DF81800042066
:103250008DF81900062105A8FFF7C4FF83460BF07F
:10326000FF008DF81A004FEA1B208DF81B0000208C
:103270003E49088000BF04E000213D4A1154411C32
:1032800088B24028F8DB082105A8FEF74DFA002592
:1032900000260AE06D1C012002F086F93348008800
:1032A000C0F30D060D2E00DB02E0B5F57A7FF1D3F9
:1032B00000BF0D2E03DA012007B0BDE8F08F2C48C7
:1032C0000078012803D12A484078032801D0022041
:1032D000F2E70D21264800F04FF808B10320EBE794
:1032E00003242349601C085C095D40EA0120049026
:1032F0000498FDF7D2F81F490090FCF771FF386081
:103300001B49E01C095C1A4AA01C105C41EA002021
:1033100000B203900398FDF7B7F816490090FCF748
:103320005FFFC8F800001249601D095C104A201DAB
:10333000105C41EA002002900298A9F800001146B2
:10334000E01D095CA01D105C41EA0020019001987D
:10335000FDF7A3F807490090FCF742FFCAF8000008
:1033600000200249088000BFA6E7000032000020CC
:103370009C05002000002041F0B505460C46032CBA
:1033800001DA0120F0BDA01E295C601E285C41EA24
:103390000027A01EC1B22846FFF724FF0646B74209
:1033A00001D00120EEE70020ECE7042808D14FF01F
:1033B000E021096941F004014FF0E022116107E0CA
:1033C0004FF0E021096921F004014FF0E022116182
:1033D0007047704710B51348006840F0010011496C
:1033E000086008464068104908400E494860084691
:1033F00000680E4908400B4908600846006820F440
:10340000802008600846406820F4FE0048604FF4C1
:103410001F008860FFF772FE4FF0006004490860EB
:1034200010BD0000001002400000FFF8FFFFF6FE94
:1034300008ED00E010B50121880700F024F880B104
:103440000121880700F010F800214FF0804000F0C3
:103450000EF80448008820F4004000F500400149BF
:10346000088010BD2C000020CA430282704721B1A1
:10347000028842F00102028004E002884FF6FE73E7
:103480001A400280704730B5024600200023002415
:10349000158A05EA0103958905EA010413B10CB107
:1034A000012000E0002030BD1AB183890B438381E5
:1034B00002E083898B4383817047818470470000D9
:1034C000002202881D4B98420ED01D4B98420BD013
:1034D000B0F1804F08D01B4B984205D01A4B984250
:1034E00002D01A4B984204D14FF68F731A404B8882
:1034F0001A43174B984207D0164B984204D04FF608
:10350000FF431A40CB881A4302808B8883850B883F
:1035100003850A4B98420BD0094B984208D00E4BBA
:10352000984205D00D4B984202D00D4B984201D1E4
:103530000B7A03860123838270470000002C014030
:10354000003401400004004000080040000C00402E
:1035500000100040001400400040014000440140C1
:103560000048014010B501212C48FDF785FD80B9C8
:103570000A2002F019F801212848FDF77DFD40B925
:1035800000BF01212548FDF777FD0028F9D0012073
:1035900010BD02212148FDF76FFD80B90A2002F01D
:1035A00003F802211D48FDF767FD40B900BF022165
:1035B0001A48FDF761FD0028F9D00220E8E7042150
:1035C0001648FDF759FD80B90A2001F0EDFF0421EE
:1035D0001248FDF751FD40B900BF04210F48FDF727
:1035E0004BFD0028F9D00320D2E708210B48FDF756
:1035F00043FD80B90A2001F0D7FF08210748FDF7F5
:103600003BFD40B900BF08210448FDF735FD002807
:10361000F9D00420BCE70020BAE700000008014010
:1036200010B540F225511D4800F078F910B31B4841
:1036300000F030FAC4B21A48008800F40040C8B95B
:103640001748008800F4804060B10A2C03D00020A5
:103650001349088020E01248008840F400401049D7
:10366000088019E00D2C06D10D48008840F48040F8
:103670000B49088010E00A480088C0F30D00094992
:103680000C5407480088401C0549088008460088FB
:10369000C72801DD0020088010BD0000003801406F
:1036A000240000205400002010B54FF458713C480D
:1036B00000F034F938B14FF45871394800F006F988
:1036C000374800F0E7F940F22551354800F026F977
:1036D00000283ED0324800F0DDF9C4B231480088FD
:1036E000C0F30E0040F2FF3188421DDA00214FF096
:1036F0008040FFF7E2FE2B480088C0F30E0018B9A7
:1037000001218807FFF7B3FE26480088C0F30E00AA
:1037100025490C5423480088401C2249098860F33D
:103720000E012048018014E01E4800886FF30E004F
:103730001C49088008460088C0F30E001A490C5442
:1037400018480088401C1749098860F30E01154885
:10375000018040F22771124800F0E0F8F0B1134800
:10376000008813490988884212D01248104A1288EA
:10377000815C0B4800F093F90D490988481CC1177A
:1037800000EB5161C911A0EBC111094A118005E09C
:10379000002240F22771024800F0EAF810BD000054
:1037A000004400402C0000201C0100202E000020BE
:1037B000300000201C05002010B540F225511648AD
:1037C00000F0ACF8C8B1144800F064F9C4B2134872
:1037D0000088C0F30D0040280ADA10480088C0F3C2
:1037E0000D000F490C540D480088401C0B490880FF
:1037F00040F22551084800F069F84FF45871064826
:1038000000F08CF838B14FF45871034800F05EF8BE
:10381000014800F03FF910BD004800403200002090
:103820009C05002010B586B0044601210820FDF754
:103830007FFE01218804FDF76BFE4FF40060ADF8B8
:10384000140004208DF8170005A91E48FDF740FB61
:103850004FF48060ADF8140003208DF81600182096
:103860008DF8170005A91748FDF732FB01940020D9
:10387000ADF80800ADF80A00ADF80C00ADF8100086
:103880000C20ADF80E0001A90F4800F097F80122B6
:1038900040F225510C4800F06BF801210A4800F075
:1038A00024F827208DF8000002208DF801008DF803
:1038B000020001208DF803006846FDF789FC06B080
:1038C00010BD0000000C01400048004010B500226F
:1038D000002340F66A14A14200D100BF0A1201245D
:1038E0009440A3B2DC43048010BD21B1828942F42C
:1038F0000052828104E082894DF6FF731A40828172
:10390000704702460020B1F5007F00D100BF138848
:103910000B400BB1012000E00020704770B502465B
:10392000002400230025002040F66A16B14200D191
:1039300000BFC1F3421501F01F03012606FA03F38D
:10394000012D02D19689334006E0022D02D1168A5C
:10395000334001E0968A33400C12012606FA04F443
:103960001688344013B10CB1012000E0002070BD76
:10397000F0B50346002400260025002040F66A1713
:10398000B94200D100BF1846C1F3421401F01F062E
:10399000012707FA06F5012C01D10C3004E0022CB6
:1039A00001D1103000E014301AB107682F430760CE
:1039B00002E00768AF430760F0BD00002DE9F04763
:1039C00086B005460E460024A24600BFA146002749
:1039D000B08900B100BF2F462C8A4CF6FF7004401E
:1039E000F08804432C82AC894EF6F3100440B08872
:1039F00031890843718908430443AC81AC8A4FF68E
:103A0000FF400440B0890443AC8201A8FDF7A0FD4B
:103A10001F48874202D1DDF810A001E0DDF80CA0BC
:103A2000A88900F4004040B10AEBCA0000EB0A107C
:103A300031684900B0FBF1F807E00AEBCA0000EB7F
:103A40000A1031688900B0FBF1F86420B8FBF0F08F
:103A500004012009642101FB1089A88900F40040B9
:103A600040B1322000EBC900B0FBF1F000F00700DC
:103A7000044308E0322000EB09106421B0FBF1F0B0
:103A800000F00F0004432C8106B0BDE8F087000071
:103A90000038014001468888C0F308007047C1F330
:103AA00008028280704700BFFEE700000FB4054B9C
:103AB00010B503A9044A029800F00CF910BC5DF897
:103AC00014FB000049560008200000200FB4084BEA
:103AD00010B504A902AA039800F0FCF8044602A954
:103AE000002000F085FC204610BC5DF814FB0000AF
:103AF000F14300087CB50C001D461646014601D076
:103B0000601E00E00020CDE90010064B6A46294601
:103B1000304600F0DFF8002C02D0009A002111702E
:103B20007CBD0000DB4300080048704740000020D7
:103B300002E008C8121F08C1002AFAD17047704776
:103B4000002001E001C1121F002AFBD170470000D4
:103B50002DE9FF5F82B00021DDE90430020DDDF8C0
:103B600040B0034318D044F61050A2F2FF32424353
:103B70001514119801281FD0A5EB0B00401C5FEA1B
:103B8000000A4FF000064E4FDFF83891B04650461D
:103B900015D5CAF1000413E0119801244AA30128A5
:103BA00001D16FEA0B010298119AC0E90031C0E916
:103BB000024206B0BDE8F09FCBF10000DFE704460B
:103BC0000021404A491842EB0450CDE9001012E0B0
:103BD000E00707D032463B4640464946FCF7C2FD67
:103BE0008046894632463B4610461946FCF7BAFDE8
:103BF00006460F466410002CEAD1DDE90401DDE938
:103C00000023BAF1000F06DAFCF7ACFD42464B4642
:103C1000FCF7A8FD05E0FCF7C8FB42464B46FCF765
:103C2000C4FB04460E460022284BFCF725FE03D8B1
:103C30004FF0FF30014607E00022254B2046314679
:103C4000FCF70CFBFCF700FE102409E0002C0ADB5B
:103C50000A220023FCF75AFC039B30321A55641EDB
:103C600050EA0102F2D1641C039AC4F11103144416
:103C7000119A012A03D0012208430DD10AE008431A
:103C800004D000204FF0110B119072E7A3EB0B054D
:103C90006D1E0DE05B4504DD4FF0000205F10105EE
:103CA00004E003DA4FF00002A5F10105002AECD090
:103CB00002981199C0E90231C0E9004579E7000096
:103CC000000014400000F03F300000000000F0430E
:103CD0000000E03F2DE9FF4F95B09A468846064622
:103CE0000025EEE1252877D100242746F94A012155
:103CF000039400E0044316F8013F203B01FA03F06F
:103D00001042F7D130782A2811D06FF02F03307885
:103D1000A0F13002092A16D8039A44F0020402EBFB
:103D2000820203EB42021044761C0390EFE758F83E
:103D3000042B0392002A03DA504244F40054039007
:103D400044F00204761C30782E2816D116F8010FA4
:103D500044F004042A280DD06FF02F023078A0F12F
:103D60003003092B09D807EB870302EB4303C7187D
:103D7000761CF3E758F8047B761C30786C280FD05B
:103D800006DC4C2817D068280DD06A2814D104E02E
:103D9000742810D07A280FD10DE044F400140AE002
:103DA00044F4801401E044F440147278824202D159
:103DB00004F58014761C761C307866280BD013DC52
:103DC000582877D009DC002875D04528F6D0462839
:103DD000F4D047281AD193E118E0632835D064283D
:103DE00079D0652812D18BE1702873D008DC672860
:103DF000F1D069286FD06E280DD06F2806D1ACE0C5
:103E000073282CD0752874D0782853D0524617992F
:103E100090476D1C54E1C4F30250022809D00328D6
:103E20000DD0D8F8001004280DD00D6008F104085A
:103E300046E1D8F80010EA17C1E90052F6E7D8F8D1
:103E400000100D80F2E70D70F0E718F8041B8DF8F4
:103E5000001000208DF80100EB46012003E058F827
:103E600004BB4FF0FF3061074FF0000102D40DE0BA
:103E700009F101018946B9420FDA8145F8DB1BF8E7
:103E800009100029F4D108E009F1010189468142B5
:103E9000FADB1BF809100029F6D103985346A0EB72
:103EA000090721463846179A00F080FA284400EBAB
:103EB000090507E044E008E10DE01BF8010B52465C
:103EC00017999047B9F10109F7D253462146384670
:103ED000179AF2E039E00A21C4F302524FF0000BC6
:103EE0000091022A06D058F8040BC117032A09D002
:103EF0000AE023E008F1070020F00702F2E80201DF
:103F0000904605E000B2C117042A01D140B2C117A2
:103F1000002906DA0A460021404261EB02012D2207
:103F200002E0220504D52B228DF80420012203E0B3
:103F3000E20701D02022F7E7914657E00A2100E08E
:103F400010214FF0000B00910BE010214FF0000BFF
:103F500044F004040827009103E008204FF0000B10
:103F60000090C4F30252022A05D058F8040B002135
:103F7000032A08D008E008F1070020F00702F2E861
:103F80000201904603E080B2042A00D1C0B24FF093
:103F9000000922072AD53278702A07D0DDF800C040
:103FA0008CF0100C5CEA0B0C05D00EE040228DF872
:103FB0000420012208E050EA010306D030238DF8E6
:103FC00004308DF8052002229146009B83F00803FF
:103FD00053EA0B030AD150EA010201D1620705D569
:103FE00030228DF804204FF001097F1E3278582AC4
:103FF00004D039A20C920CAA02920BE03BA2F9E782
:104000005B46009AFCF782FA0C9B9B5C029A521E5C
:104010000292137050EA0102F2D1029804A9081A20
:1040200000F1200B600702D524F4803400E0012762
:104030005F4502DDA7EB0B0000E0002000EB0B0169
:10404000009003984944401A0390E00306D4534675
:104050002146179A039800F0A9F90544002706E0C5
:1040600001A85246C05D179990476D1C7F1C4F45B3
:10407000F6DBE0030CD553462146179A039800F06F
:1040800095F9054404E030205246179990476D1C7D
:104090000099481E00900029F5DC08E0029802997A
:1040A00052460078491C0291179990476D1CBBF14C
:1040B0000001ABF1010BF1DC5BE100F065F90544B7
:1040C000761C307800287FF40DAE19B02846BDE884
:1040D000F08F000009280100303132333435363793
:1040E0003839616263646566000000003031323344
:1040F00034353637383941424344454600000000E4
:10410000600700D4062708F1070020F00700F0E858
:104110000223804603F0004C5FEA0C0001D097A018
:1041200009E0200501D596A005E0E00701D095A0A3
:1041300001E0AFF24C001390307823F00043652883
:104140000CD006DC452809D046281DD047287FD151
:104150003BE0662818D067287AD136E00021112F7D
:1041600001DB112000E0781CCDE9000104A90CA8B6
:10417000FFF7EEFCDDE90D010C9A4FF0000B07F1A3
:104180000109109200914EE04FF000400097CDE9F8
:10419000011004A90CA8FFF7DBFCDDE90D020C9B64
:1041A0000F994FF0000B91461093009211B9791CB2
:1041B00000EB0109B7EB090003D4C0F1FF3B07F1A5
:1041C0000109A9EB0700019042E0012F00DA012765
:1041D0000021112F01DD112000E03846CDE900015A
:1041E00004A90CA8FFF7B4FCDDE90D010C9A0091BD
:1041F0004FF0000BB946109221070FD4009A4A45A0
:1042000003DA914601E0A9F10109B9F1010F05DDD9
:10421000109AA9F10101515C3029F4D0B84202DAB8
:1042200010F1040F03DA0121CDE9011010E000289C
:1042300003DC8344A9EB000102E0411C494500DD99
:104240008946A0EB0B00401C01904FF0004002900B
:10425000200705D40198484502DB4FF0FF3001905C
:1042600000208DF84B0002980DF14B07B0F1004F84
:1042700025D002200C902B200D90029800280CDAFB
:10428000404202902D200D9007E00A210298FCF791
:1042900027F93031029007F8011D0C99481E0C9047
:1042A0000029F2DC02980028EFD1791E0D980870E1
:1042B000307800F0200040F0450007F8020D11A80A
:1042C000C01BC01D02901398007800B1012000EBC4
:1042D0000901019801EBE071029801440398401A2A
:1042E000401E0390E00306D453462146179A0398D4
:1042F00000F05CF805441398007818B152461799FD
:1043000090476D1CE00323D553462146179A039826
:1043100000F04CF805441BE0BBF1000F07DB0098F0
:10432000584504DD1098179910F80B0001E0179913
:1043300030205246904701980BF1010B401E05F1C9
:104340000105019004D12E205246179990476D1C0B
:10435000B9F10001A9F10109DEDC05E017F8010B54
:104360005246179990476D1C0299481E02900029E9
:10437000F4DC53462146179A03989EE62D00000070
:104380002B000000200000002DE9F041044600252C
:104390001E461746880404D405E039462020B0475D
:1043A0006D1C641EF9D52846BDE8F0812DE9F04169
:1043B000044600251E469046C80301D5302700E07C
:1043C0002027880404D505E041463846B0476D1CD7
:1043D000641EF9D52846BDE8F0814A68002A06D057
:1043E0000A68531C0B6010704868401E4860704794
:1043F0000A68531C0B6010707047000070B50025F0
:104400000BE04FF4FA7207A107A000F039FB044655
:104410000CB9002070BD681CC5B20A2DF1DB01206B
:10442000F8E700004F4B0000415400002DE9F04137
:1044300090B004460D4600262A46214643A0FFF7C9
:1044400035FB4FF4FA7001F0AFF800F0DDFF6420A7
:1044500001F0AAF84FF4FA6242A143A000F010FB69
:104460004FF4FA7001F0A0F84FF4FA623DA141A0B8
:1044700000F006FB8046B8F1000F16D040A0FFF711
:1044800015FB4FF47A7001F08FF84FF4FA6235A102
:1044900035A000F0F5FA4FF4FA7001F085F84FF40A
:1044A000FA6230A133A000F0EBFA2B4622463FA17E
:1044B0006846FFF70BFB00F0A7FF694642A000F03B
:1044C00037FF4FF4FA573AE000F088FF0646002E17
:1044D00031D03FA13046FBF739FE20B921A130464B
:1044E000FBF734FE30B13CA0FFF7E0FA002010B03B
:1044F000BDE8F0813EA13046FBF728FE48B93EA159
:104500003046FBF723FE20B93DA13046FBF71EFEE7
:1045100028B131463CA0FFF7C9FA0120E7E741A1E5
:104520003046FBF713FE20B143A0FFF7BFFA00208F
:10453000DDE700F069FF7F1E012001F035F8002F54
:10454000C2D142A0FFF7B2FA0220D0E70D0A5B54B5
:1045500043505D20E8BF9EE68EA52025733A257363
:104560000D0A00004F4B000041542B434950434C6F
:104570004F53450041542B4349504D55583D300051
:104580005B5443505D20E58D95E8BF9EE68EA5E621
:10459000A8A1E5BC8FE5A4B1E8B4A5EFBC8CE7AD5C
:1045A00089E5BE852E2E2E0D0A00000041542B43B6
:1045B000495053544152543D22544350222C2225F9
:1045C00073222C257300000025730D0A00000000E3
:1045D000434F4E4E454354005B5443505D20E8BF6B
:1045E0009EE68EA5E68890E58A9F0D0A00000000F1
:1045F0004552524F520000004641494C0000000015
:1046000062757379000000005B5443505D20E8BF81
:104610009EE68EA5E5A4B1E8B4A53A2025730D0A5F
:1046200000000000414C524541445920434F4E4E3A
:1046300045435445440000005B5443505D20E5B7BA
:10464000B2E8BF9EE68EA50D0A0000005B54435001
:104650005D20E8BF9EE68EA5E8B685E697B60D0A12
:10466000000000002DE9F0410024032755E0611C03
:104670002EA0FFF71BFA3AA0FFF718FA4FF47A7250
:104680003FA142A000F0FCF9064656B1314643A0D6
:10469000FFF70CFA4FF47A7000F086FF601CC4B28A
:1046A0003BE04CA0FFF702FA52A0FFF7FFF94FF4EE
:1046B0007A725AA15AA000F0E3F9064656B1314683
:1046C0005BA0FFF7F3F94FF47A7000F06DFF601C08
:1046D000C4B222E063A0FFF7E9F94FF4FA7000F0EA
:1046E00063FF6AA0FFF7E2F94FF47A7270A171A03C
:1046F00000F0C6F9054655B1294671A0FFF7D6F975
:104700004FF47A7000F050FF601CC4B205E078A04E
:10471000FFF7CCF90020BDE8F081032CA7DB0321D3
:1047200081A0FFF7C3F90120F5E700005B44454293
:1047300055475D20E5B09DE8AF95E8BF9BE585A5B1
:10474000E9808FE4BCA0E6A8A1E5BC8F2028E7ACF7
:10475000AC2564E6ACA1292E2E2E0D0A0000000027
:104760005B44454255475D20E6A380E69FA5E8BF30
:104770009EE68EA5E78AB6E680812E2E2E0D0A00D3
:104780005354415455533A330000000041542B43D5
:104790004950535441545553000000005B57415257
:1047A0004E494E475D20E8BF9EE68EA5E78AB6E6F5
:1047B0008081E6A380E69FA5E5A4B1E8B4A5EFBC9F
:1047C0008CE99499E8AFAFE7A0813A2025640D0AFF
:1047D000000000005B535543434553535D20E8BF41
:1047E0009EE68EA5E78AB6E68081E6ADA3E5B8B879
:1047F0000D0A00005B44454255475D20E58F91E975
:10480000808141542B4349504D4F44453D31E68C06
:1048100087E4BBA42E2E2E0D0A0000004F4B000093
:1048200041542B4349504D4F44453D310000000059
:104830005B4552524F525D2041542B4349504D4FDE
:1048400044453D31E68C87E4BBA4E5A4B1E8B4A5BA
:104850002120E99499E8AFAFE7A0813A2025640DC3
:104860000A0000005B535543434553535D204154B8
:104870002B4349504D4F44453D31E68C87E4BBA462
:10488000E68890E58A9F0D0A000000005B444542DF
:1048900055475D20E58F91E9808141542B43495074
:1048A00053454E44E68C87E4BBA42E2E2E0D0A0001
:1048B0003E00000041542B43495053454E440000F4
:1048C0005B4552524F525D2041542B434950534552
:1048D0004E44E68C87E4BBA4E5A4B1E8B4A521204E
:1048E000E99499E8AFAFE7A0813A2025640D0A006A
:1048F0005B535543434553535D2041542B4349502B
:1049000053454E44E68C87E4BBA4E68890E58A9F35
:10491000EFBC8CE8BF9BE585A5E9808FE4BCA0E6F1
:10492000A8A1E5BC8F0D0A005B4552524F525D2095
:10493000E8BF9BE585A5E9808FE4BCA0E6A8A1E5DA
:10494000BC8FE5A4B1E8B4A5EFBC8CE5B7B2E987AC
:104950008DE8AF952564E6ACA10D0A002DE9F04184
:1049600006464FF4FA720FA10FA000F089F807462F
:1049700017B10120BDE8F08100F030FD80460DA1A7
:10498000FBF7E4FB04460BA1601CFBF7DFFB0546CD
:1049900000202870621C08A13046FFF797F800201D
:1049A000E8E700004F4B000041542B434946535267
:1049B00000000000220000002573000008B501215E
:1049C0000420FCF7B5FD1020ADF800008DF80300C1
:1049D00003208DF8020069460148FCF779FA08BD0A
:1049E0000008014010B5002210210848FCF75AFBCE
:1049F000642000F0D9FD012210210448FCF752FB8D
:104A00004FF4FA7000F0D0FD10BD00000008014026
:104A100010B50446FFF7D2FFFFF7E4FF204600F091
:104A20005BF8FFF7EBFC08B1012010BD0020FCE7AC
:104A300070B590B004460D462B46224608A1684644
:104A4000FFF744F842F210720AA1684600F018F825
:104A5000064616B9002010B070BD0120FBE700002B
:104A600041542B43574A41503D222573222C222585
:104A7000732200005749464920474F5420495000AF
:104A80002DE9F04105460E461446002700F0BCFC17
:104A900029460FA000F04CFC06B114B90020BDE877
:104AA000F08110E000F09AFC074647B131463846E5
:104AB000FBF74CFB08B10020F1E700F0A5FC641EF9
:104AC000012000F071FD002CECD10220E7E700008E
:104AD00025730D0A0000000010B58AB0044647A0F7
:104AE000FEF7E4FF52A0FEF7E1FF21465AA0FEF7D1
:104AF000DDFF61A0FEF7DAFF67A0FEF7D7FF6EA02B
:104B0000FEF7D4FF01210520FCF712FD01217348B7
:104B1000FCF7FEFC72A0FEF7C9FF7CA0FEF7C6FF03
:104B200085A0FEF7C3FF8FA0FEF7C0FF98A0FEF799
:104B3000BDFF0420ADF8240018208DF827000320C5
:104B40008DF8260009A99B48FCF7C2F99AA0FEF748
:104B5000ADFF0820ADF8240004208DF8270009A936
:104B60009448FCF7B5F9A4A0FEF7A0FFAEA0FEF7AD
:104B70009DFF04940020ADF81400ADF81600ADF8C8
:104B80001800ADF81C000C20ADF81A0004A9B148BB
:104B9000FEF714FF2146B0A0FEF788FFB7A0FEF78E
:104BA00085FFBFA0FEF782FFC6A0FEF77FFFCEA065
:104BB000FEF77CFFD5A0FEF779FFDEA0FEF776FFBB
:104BC00026208DF8200001208DF821008DF822008C
:104BD0008DF8230008A8FCF7FBFADFA0FEF766FFBC
:104BE000E8A0FEF763FFF6A0FEF760FFFEA0FEF769
:104BF0005DFF012240F2255108E200005B5365721F
:104C000069616C20496E69745D20E5BC80E5A78B05
:104C1000E5889DE5A78BE58C9657694669E6A8A1CE
:104C2000E59D97E4B8B2E58FA32E2E2E0D0A000065
:104C30005B53657269616C20496E69745D20E79B06
:104C4000AEE6A087E4B8B2E58FA33A2055534152AF
:104C500054320D0A000000005B53657269616C20DC
:104C6000496E69745D20E6B3A2E789B9E78E873A99
:104C700020256C750D0A00005B53657269616C201C
:104C8000496E69745D205458E5BC95E8849A3A20D1
:104C90005041320D0A0000005B53657269616C205F
:104CA000496E69745D205258E5BC95E8849A3A20B3
:104CB0005041330D0A0000005B53657269616C203E
:104CC000496E69745D20312E20E9858DE7BDAEE621
:104CD00097B6E9929F2E2E2E0D0A000001000200C9
:104CE0005B53657269616C20496E69745D20202D8B
:104CF000204750494F41E697B6E9929F3A20E5B7E1
:104D0000B2E590AFE794A80D0A0000005B5365720E
:104D100069616C20496E69745D20202D20414649EF
:104D20004FE697B6E9929F3A20E5B7B2E590AFE734
:104D300094A80D0A000000005B53657269616C2045
:104D4000496E69745D20202D20555341525432E63E
:104D500097B6E9929F3A20E5B7B2E590AFE794A8FD
:104D60000D0A00005B53657269616C20496E6974BD
:104D70005D20202D2054494D32E697B6E9929F3AA6
:104D800020E5B7B2E590AFE794A80D0A0000000057
:104D90005B53657269616C20496E69745D20322EC7
:104DA00020E9858DE7BDAEE5BC95E8849A2E2E2ED0
:104DB0000D0A0000000801405B53657269616C20B8
:104DC000496E69745D20202D205458E5BC95E88417
:104DD0009A28504132293A20E5A48DE794A8E68E1E
:104DE000A8E68CBDE8BE93E587BAEFBC8C35304DA4
:104DF000487A0D0A000000005B53657269616C20FF
:104E0000496E69745D20202D205258E5BC95E884D8
:104E10009A28504133293A20E6B5AEE7A9BAE8BE50
:104E200093E585A50D0A00005B53657269616C20EE
:104E3000496E69745D20332E20E9858DE7BDAEE4AF
:104E4000B8B2E58FA3E58F82E695B02E2E2E0D0A1F
:104E500000000000004400405B53657269616C20F3
:104E6000496E69745D20202D20E6B3A2E789B9E779
:104E70008E873A20256C750D0A0000005B53657221
:104E800069616C20496E69745D20202D20E695B023
:104E9000E68DAEE4BD8D3A2038E4BD8D0D0A0000EC
:104EA0005B53657269616C20496E69745D20202DC9
:104EB00020E5819CE6ADA2E4BD8D3A2031E4BD8DB4
:104EC0000D0A00005B53657269616C20496E69745C
:104ED0005D20202D20E6A0A1E9AA8CE4BD8D3A201A
:104EE000E697A00D0A0000005B53657269616C20B3
:104EF000496E69745D20202D20E6B581E68EA7E518
:104F000088B63A20E697A00D0A0000005B53657250
:104F100069616C20496E69745D20202D20E6A8A18E
:104F2000E5BC8F3A20E694B6E58F91E6A8A1E5BCF2
:104F30008F0D0A005B53657269616C20496E69745C
:104F40005D20342E20E9858DE7BDAEE4B8ADE69650
:104F5000AD2E2E2E0D0A00005B53657269616C2028
:104F6000496E69745D20202D20555341525432E41E
:104F7000B8ADE696AD3A20E5B7B2E590AFE794A8B4
:104F80000D0A00005B53657269616C20496E69749B
:104F90005D20202D20E4B8ADE696ADE5A484E79031
:104FA00086E587BDE695B03A205553415254325FAD
:104FB00049525148616E646C65720D0A0000000030
:104FC0005B53657269616C20496E69745D20202DA8
:104FD00020E68AA2E58DA0E4BC98E58588E7BAA71B
:104FE0003A20310D0A0000005B53657269616C2044
:104FF000496E69745D20202D20E5AD90E4BC98E5F4
:105000008588E7BAA73A20310D0A00003348FEF739
:10501000AFFC33A0FEF74AFD01213048FEF765FCE6
:105020003CA0FEF743FD46A0FEF740FDEF20ADF8A3
:1050300008004EF65F20ADF804000020ADF80A002D
:10504000ADF8060001A94FF08040FEF739FA47A0FD
:10505000FEF72CFD4EF65F214DA0FEF727FD55A073
:10506000FEF724FD5EA0FEF721FD1C208DF8200038
:1050700002208DF8210001208DF8220008A8FCF7FD
:10508000A7F8012211469007FEF70EFA5EA0FEF780
:105090000DFD69A0FEF70AFDAFF2B400FEF706FDB4
:1050A0006F4800886FF30E006D490880084600883D
:1050B00020F40040088000206A4908806A4908807E
:1050C0006AA0FEF7F3FC74A0FEF7F0FC7EA0FEF7EA
:1050D000EDFC89A0FEF7EAFC0AB010BD00440040D8
:1050E0005B53657269616C20496E69745D20352E71
:1050F00020E590AFE794A8E68EA5E694B6E4B8ADB7
:10510000E696AD3A20E5B7B2E590AFE794A80D0A70
:10511000000000005B53657269616C20496E697420
:105120005D20362E20E590AFE794A85553415254A8
:10513000323A20E5B7B2E590AFE794A80D0A000037
:105140005B53657269616C20496E69745D20372E0E
:1051500020E9858DE7BDAE54494D32E5AE9AE6971C
:10516000B6E599A82E2E2E0D0A0000005B5365723D
:1051700069616C20496E69745D20202D20E5AE9A2E
:10518000E697B6E599A83A2054494D320D0A000039
:105190005B53657269616C20496E69745D20202DD6
:1051A00020E9A284E58886E9A291E599A83A20251C
:1051B000640D0A005B53657269616C20496E697405
:1051C0005D20202D20E887AAE58AA8E9878DE8A33D
:1051D00085E8BDBDE580BC3A203233390D0A0000B8
:1051E0005B53657269616C20496E69745D20202D86
:1051F00020E8B685E697B6E697B6E997B43A203246
:1052000030306D730D0A00005B53657269616C206C
:10521000496E69745D20382E20E9858DE7BDAE5456
:10522000494D32E4B8ADE696AD3A20E5B7B2E59027
:10523000AFE794A80D0A00005B53657269616C20AA
:10524000496E69745D20202D20E68AA2E58DA0E4D8
:10525000BC98E58588E7BAA73A20320D0A0000001D
:105260002C0000202E000020300000205B536572CF
:1052700069616C20496E69745D20392E20E5889D36
:10528000E5A78BE58C96E7BC93E586B2E58CBA2E54
:105290002E2E0D0A000000005B53657269616C20C0
:1052A000496E69745D20202D20E68EA5E694B6E750
:1052B000BC93E586B2E58CBA3A20E5B7B2E6B8858C
:1052C000E7A9BA0D0A0000005B53657269616C20A2
:1052D000496E69745D20202D20E58F91E98081E77A
:1052E000BC93E586B2E58CBA3A20E5B7B2E6B8855C
:1052F000E7A9BA0D0A0000005B53657269616C2072
:10530000496E69745D2057694669E6A8A1E59D97D5
:10531000E4B8B2E58FA3E5889DE5A78BE58C96E51B
:10532000AE8CE68890EFBC810D0A0D0A00000000EB
:105330000FB410B5ADF5027D85A881904FF40071D2
:1053400001A8819B849AFEF7D5FB84B2002081904E
:10535000002C1CDD00BF12E001A9095C0E4A0F4BB6
:105360001B88D1540D4A1288511CCA1701EB526296
:10537000D211A1EBC212094B1A80411C88B2A04283
:10538000EADB012240F227710548FEF7F1FA0DF53C
:10539000027D10BC5DF814FB1C0500202E000020CF
:1053A000004400400FB410B5ADF5027D85A8819092
:1053B0004FF4007101A8819B849AFEF79BFB84B295
:1053C00000208190002C03DD214601A800F000FDA3
:1053D0000DF5027D10BC5DF814FB00000848008844
:1053E0000121B1EBD03F08D1002005490988C1F364
:1053F0000E01044A5054104670470020FCE700009C
:105400002C0000201C010020054800886FF30E00CE
:10541000034908800846008820F40040088070474F
:105420002C00002030B585B00024002530E0052395
:10543000621C1DA11EA0FEF739FB28A11AA0FFF7D0
:10544000F7FA98B928A0FEF731FB14216846FAF75D
:1054500072FE6846FFF782FA18B9694629A0FEF77E
:1054600025FB01202E490870012513E0601C410036
:105470002CA0FEF71BFB601CC4B2611C01EB4102B7
:10548000C2EBC1114FF6FF7202EA011000F08CF876
:10549000052CCCDB00BF052C03DB2DA0FEF706FBA3
:1054A0000025284605B030BD7669766F5331380047
:1054B0005B576946695D20E8BF9EE68EA5E588B02A
:1054C000576946693A2025732028E5B09DE8AF95D5
:1054D0002025642F2564290D0A0000003132333461
:1054E00035363738000000005B576946695D205744
:1054F000694669E8BF9EE68EA5E68890E58A9F0D1D
:105500000A0000005B576946695D20E88EB7E58FA9
:10551000964950E59CB0E59D803A2025730D0A0020
:105520003C0000205B576946695D2057694669E881
:10553000BF9EE68EA5E5A4B1E8B4A5EFBC8C2564BA
:10554000E7A792E5908EE9878DE8AF950D0A0000F8
:105550005B576946695D2057694669E8BF9EE68EDC
:10556000A5E5A4B1E8B4A5EFBC8CE5B7B2E8BEBE32
:10557000E588B0E69C80E5A4A7E9878DE8AF95E6CD
:10558000ACA1E695B00D0A0010B504466FF004001A
:10559000FDF70BFF2046E11704EB5171C910014ADA
:1055A000116010BD140000200146134A12684A43DE
:1055B0004FF47A735A434FF0E0235A6100229A6104
:1055C0001A46126942F001021A6100BF4FF0E02250
:1055D000106900F001021AB100F48032002AF5D0FF
:1055E0004FF0E022126922F001024FF0E0231A612D
:1055F00000229A6170470000140000200146114A01
:1056000012684A434FF0E0235A6100229A611A4619
:10561000126942F001021A6100BF4FF0E0221069E6
:1056200000F001021AB100F48032002AF5D04FF0E8
:10563000E022126922F001024FF0E0231A610022F9
:105640009A6170471400002000BF054A128802F0DA
:105650008002002AF9D0C2B2014B1B1D1A8070478C
:105660000038014010B5002413A0FEF71FFA1BA25A
:1056700001210846FBF716FF1CA201210220FBF7BF
:1056800011FF4FF4E130FFF7C3F948B91BA0FEF753
:105690000DFA24A201210220FBF704FF012408E0F7
:1056A00023A0FEF703FA2CA201210220FBF7FAFE49
:1056B0000024204610BD00005B53797374656D5D56
:1056C00020E5889DE5A78BE58C9657694669E6A895
:1056D000A1E59D972E2E2E0D0A0000002020537963
:1056E0007374656D20496E6974000000202057694D
:1056F0004669204D6F64756C650000005B537973DB
:1057000074656D5D2057694669E6A8A1E59D97E53A
:10571000889DE5A78BE58C96E68890E58A9F0D0A23
:10572000000000002020496E69743A204F4B0000B1
:105730005B53797374656D5D2057694669E6A8A16E
:10574000E59D97E5889DE5A78BE58C96E5A4B1E8F6
:10575000B4A50D0A000000002020496E69743A20AB
:105760004661696C6564000086B04820FFF70CFF55
:105770004FF4E13000F04AFBFBF79CFCFBF7F0FD37
:10578000FBF790FFFBF7DAF9FBF7C6FCFBF7ACFF82
:105790004FF4E130FFF7A0F99FA0FEF787F9A9A029
:1057A000FEF784F94FF4FA62B0A1B1A0FFF768F9EF
:1057B0004FF4FA62ADA1B1A0FFF762F9B3A0FEF712
:1057C00075F9FCF7A9FEFBF73BFDBBA201210846DA
:1057D000FBF768FEBCA203210120FBF763FEFFF785
:1057E00041FF002856D0BCA203210120FBF75AFE3E
:1057F000BDA205210120FBF755FEFFF713FE00288F
:1058000042D0BDA0FEF752F9CBA205210120FBF743
:1058100049FE4FF4FA70FFF7C7FECAA0FEF746F93B
:10582000D1A201210320FBF73DFEFCF7F1FC40B9BA
:10583000D1A0FEF73BF9D9A201210320FBF732FEEC
:1058400007E0D9A0FEF732F9E0A201210320FBF71F
:1058500029FE4FF4FA70FFF7A7FEFBF7F1FCDEA27A
:1058600001210846FBF71EFEDFA201210220FBF703
:1058700019FECAA201210320FBF714FEDDA20121BB
:105880000420FBF70FFE0AE0DDA205210120FBF753
:1058900009FE04E0DEA203210120FBF703FEBAE0CB
:1058A000E0480068401CDF490860FDF75BFE0446E5
:1058B000032C12D10120FBF7B5FEDBA0FEF7F6F8B2
:1058C000E848007800281BD0FCF7D6FEC0B10122C2
:1058D0001146E5A0FDF7CCF812E0042C10D1002011
:1058E000FBF7A0FEE2A0FEF7E1F8DE48007838B151
:1058F000FCF7C2FE20B101220021DBA0FDF7B8F8C1
:10590000C848006842F21071B0FBF1F201FB1200CE
:1059100020B9D448007808B1FCF7BEFEC148006841
:105920004FF4FA71B0FBF1F201FB120000286ED1C6
:10593000CC48007800286AD0FCF79EFE002866D08C
:1059400000200590019002900390049001AA05A9FF
:10595000C5A0FBF70FFF0546012D57D1059800287C
:1059600054DDD2A0FEF7A2F801AADEA00599FEF749
:105970009DF8E6A101A8FAF718FC00281BD1E4A0C5
:10598000FEF794F80120FBF74DFEEBA20121042065
:10599000FBF788FD6420FFF707FE01221146B2A045
:1059A000FDF766F8E7A2B0A00599FCF7D7F9E8A0E3
:1059B000FEF77CF82AE0EEA101A8FAF7F6FB002832
:1059C0001BD1ECA0FEF772F80020FBF72BFEF3A230
:1059D00001210420FBF766FD6420FFF7E5FD0122AD
:1059E0000021A1A0FDF744F8D6A29FA00599FCF7DD
:1059F000B5F9D7A0FEF75AF808E001A9EAA0FEF72A
:105A000055F8F1A298A00599FCF7A8F900BF01206C
:105A1000FFF7CAFD00BF43E75B53797374656D5DA3
:105A20002057694669E6A8A1E59D97E4B8B2E58FDD
:105A3000A3E5889DE5A78BE58C96E68890E58A9F8F
:105A40000D0A00005B53797374656D5D20E9858DE7
:105A5000E7BDAE544350E995BFE8BF9EE68EA5E68C
:105A6000A8A1E5BC8F2E2E2E0D0A00004F4B000082
:105A700041542B4349504D55583D300041542B4320
:105A800049504D4F44453D30000000005B53797351
:105A900074656D5D20544350E995BFE8BF9EE68E66
:105AA000A5E6A8A1E5BC8FE9858DE7BDAEE5AE8C86
:105AB000E688900D0A000000202053797374656D0C
:105AC00020496E697400000020205769466920490A
:105AD0006E69742E2E2E00002020576946692049D9
